S01700006275696C642F696E67612F6D61696E2E737265635B
S11300000C945E010C947D010C947D010C947D0193
S11300100C947D010C947D010C947D010C947D0164
S11300200C947D010C94D5080C947D010C942F0B39
S11300300C947E190C94C7190C94E0090C94EB09E8
S11300400C947D010C947D010C947D010C947D0134
S11300500C94D0060C947D010C9453070C947D01F0
S11300600C947D010C947D010C947D010C947D0114
S11300700C946F080C947D010C9481080C94A208D4
S11300800C948C080C9497080C94B508C91AA11BFD
S1130090E21BE41BF41B5F1CB91AA31CB11CBF1C9C
S11300A0F21C3F1D541D851DC21D421EAF1E0B1F99
S11300B01F1FC11A392000002110422063308440E0
S11300C0A550C660E770088129914AA16BB18CC123
S11300D0ADD1CEE1EFF13112100273325222B5529A
S11300E09442F772D662399318837BB35AA3BDD373
S11300F09CC3FFF3DEE36224433420040114E6646A
S1130100C774A44485546AA54BB528850995EEE5C2
S1130110CFF5ACC58DD55336722611163006D77679
S1130120F6669556B4465BB77AA719973887DFF712
S1130130FEE79DD7BCC7C448E5588668A778400841
S1130140611802282338CCC9EDD98EE9AFF9488962
S113015069990AA92BB9F55AD44AB77A966A711AD9
S1130160500A333A122AFDDBDCCBBFFB9EEB799BB2
S1130170588B3BBB1AABA66C877CE44CC55C222C29
S1130180033C600C411CAEED8FFDECCDCDDD2AAD02
S11301900BBD688D499D977EB66ED55EF44E133EB9
S11301A0322E511E700E9FFFBEEFDDDFFCCF1BBF52
S11301B03AAF599F788F8891A981CAB1EBA10CD12C
S11301C02DC14EF16FE18010A100C230E320045034
S11301D0254046706760B9839893FBA3DAB33DC3A7
S11301E01CD37FE35EF3B1029012F322D232354284
S11301F0145277625672EAB5CBA5A89589856EF537
S11302004FE52CD50DC5E234C324A01481046674D3
S1130210476424540544DBA7FAB79987B8975FE786
S11302207EF71DC73CD7D326F2369106B016576623
S11302307676154634564CD96DC90EF92FE9C8990E
S1130240E9898AB9ABA94458654806782768C01873
S1130250E1088238A3287DCB5CDB3FEB1EFBF98BE6
S1130260D89BBBAB9ABB754A545A376A167AF10AC3
S1130270D01AB32A923A2EFD0FED6CDD4DCDAABDF6
S11302808BADE89DC98D267C076C645C454CA23C13
S1130290832CE01CC10C1FEF3EFF5DCF7CDF9BAFC6
S11302A0BABFD98FF89F176E367E554E745E932E63
S11302B0B23ED10EF01E00020E060C0411241FBE25
S11302C0CFEFD0E4DEBFCDBF13E0A0E0B1E0E0EFBC
S11302D0FEE400E00BBF02C007900D92A238B10704
S11302E0D9F718E0A2E8B3E001C01D92A93EB10716
S11302F0E1F70E9480200C9477270C9400008FB7BC
S1130300F894992708958FBF0895282F9FB7F894DC
S1130310E82FFF27EE54FC4F80818F3F81F4E0915A
S1130320D908E21771F40BC02093940804C0FF2786
S1130330EE54FC4F20832093D90820E007C025E029
S113034005C0809194088F3F91F7EECF892F9927AC
S11303508FBF822F992708951F931FB7F894809118
S1130360D208882339F40E948501882319F481E096
S11303708093D208812F99278FBF1F910895382F1A
S1130380FA01422F2D3118F082E090E0089566833F
S1130390872F9927858333872187809187039091BD
S11303A08803892B19F085E090E008952FB7F8941D
S11303B0332785E080938A0310928B03F09386039E
S11303C0E093850382E090E0909388038093870311
S11303D010928D0310928C03445F409389032FBFC6
S11303E09FB7F89480918704882311F020E006C019
S11303F081E0809387041092880421E0892F992753
S11304008FBF222329F00E94AC0180E090E0089580
S1130410109288031092870381E090E00895CF93AF
S1130420DF93DB01FB0135968183892F9927EB014B
S11304308D8384E686838091F7049091F804892B58
S113044019F085E090E029C07093F8046093F704F4
S1130450448380916803882319F480E090E01DC0F0
S11304608681EB016D817727762F662721813327DB
S1130470622B732B10926803242FAD010E94BF01DD
S11304809927282F882339F081E0809368031092FC
S1130490F8041092F704822F9927DF91CF910895E1
S11304A08FB7F894282F332780916F05813021F07E
S11304B02FBF80E090E0089582E080936F05109252
S11304C0DA032FBF81E090E00895382F80916F0503
S11304D08230C9F42091DA03E22FFF27CF01830F82
S11304E0911D4C9794F583E080936F0520937F04CE
S11304F02F5F2093DA038091720590917305E80FC2
S1130500F91F64871CC080916F05833009F58091C1
S1130510DA03830F912D911D4D97BCF482E08093F3
S11305206F05E0917205F09173053C9680917F040C
S1130530E80FF11D6295607F8081860F8083809132
S1130540DA03380F3093DA0304C084E080936F0534
S11305508FEF992787FD909508959FB7F894292FD9
S11305603327422F90917103981741F480919A0395
S1130570823021F42FBF81E090E008954FBF80E0E6
S113058090E00895882319F08CB5806402C08CB57E
S11305908F7B8CBD08950F931F93982F1FB7F894EA
S11305A080919A03823099F580917103891779F5C6
S11305B080916F0320E030E08F3F11F421E030E0C0
S11305C0232BF1F49FEF909371038F3F19F42FEFD6
S11305D030E00DC0282F3327F901E058FB4F80810C
S11305E080936F038F3F11F4909370039083209353
S11305F0820481E080939A0382E10E94850105C010
S11306008FEF8093710310929A0301E001C000E020
S1130610812F99278FBF1FB7F89480919A0388235D
S113062011F40E94C202812F99278FBF90E00130FC
S113063009F491E081E09827892F99271F910F9160
S11306400895882319F08CB5806802C08CB58F7723
S11306508CBD08950F931F9380E00E94C2020FB7D0
S1130660F8941127229A2398219A8CB580618CBD25
S113067080E00E9421038DB581608DBD8CB5877F9C
S11306808CBD8CB58B7F8CBD8CB58E7F8CBD81E091
S11306900E94C2020FBF1F910F9108958FB7F89463
S11306A02091E9033091EA034091EB035091EC036C
S11306B0E0918400F0918500B09B08C02F5F3F4F0C
S11306C04F4F5F4FE0918400F091850099278FBFD1
S11306D0C901772766279F0144275527622B732B6F
S11306E0842B952B0895CF93DF93FB0131962281C0
S11306F03197EC018B81281719F080E090E00AC053
S113070090E081818770823009F091E081E0982740
S1130710892F9927DF91CF910895FC01828121814E
S11307209927982F88273327822B932B85FF1FC067
S113073087749C7C81549848D1F4878146812FB773
S1130740F89433276091690370916A032FBF20E006
S11307509927982F88275527842B952B8617970739
S113076009F021E081E02827822F9927089580E06D
S113077090E00895FB0121E030E002C0220F331F16
S11307808A95E2F784A5822399270895EF92FF9230
S11307900F931F937C018FB7F89499270091CB0393
S11307A01091CC030F5E1E4F1093CC030093CB0328
S11307B0015111408FBF80E10E948501C801B7013A
S11307C00E9400248A5D9E4F1F910F91FF90EF902D
S11307D008957FB7F8946091B2002091D3033091CB
S11307E0D4034091D5035091D603B99B11C0809195
S11307F0B3009091B200280F311D411D511D2F5F90
S11308003F4F4F4F5F4F290F311D411D511D04C0F4
S1130810260F311D411D511D872F99278FBFCA01F6
S1130820B9010895DF92EF92FF920F931F938FB750
S1130830F894282F3327D22E9091B3008091B200E0
S113084047B3981711F041FF02C02FBF71C08091C8
S113085097088823E1F10E94E903E0909A08F09058
S11308609B0800919C0810919D082091A70330914A
S1130870A8034091A9035091AA036E197F09800B24
S1130880910B621773078407950720F0109297085D
S113089071E01EC02E0D3F1D401F511F8091D303D8
S11308A09091D403A091D503B091D603281B390BA2
S11308B04A0B5B0B273E31054105510540F4822F5D
S11308C0223010F070E005C070E082E002C070E0F9
S11308D086EE682F61508091B60083FDFCCF809135
S11308E0B200681709F46F5F2091D3033091D403E9
S11308F04091D5035091D603DA01C9010196A11D97
S1130900B11D860F911DA11DB11D82179307A40768
S1130910B50710F4622F60958091B60083FDFCCF7B
S11309206093B300DFBE772319F089E00E9485014C
S11309301F910F91FF90EF90DF900895AFB7F89457
S1130940BB27E1E0E093970860939A0870939B08B3
S113095080939C0890939D082093A7033093A80349
S11309604093A9035093AA03AFBF0E9412040895B1
S11309709FB7F89480916C058A3011F020E006C08E
S113098020E08091D903843009F421E0892F99274C
S11309908FBF222349F082E00E9485018FB7F8942B
S11309A099271092820306C08FB7F894992721E003
S11309B0209382038FBF08952FB7F8943327809331
S11309C0C600E0ECF0E08081806480832FBF08954E
S11309D0FC016115710519F481E090E0089580919E
S11309E0830490918404892B19F085E090E00895A4
S11309F07093AC066093AB06F0938404E093830495
S1130A001092DC031092DB0381E08093DD0380917C
S1130A10C00080648093C0008091C1008064809392
S1130A20C100808121E030E03093DC032093DB03BC
S1130A300E94DC0480E090E00895809193038E7F0F
S1130A40809393038EE78093C80361E070E088ECA1
S1130A5093E00E94E80499270895E6EBF0E0692703
S1130A60660FF11DE60FF11DC895982F802D319664
S1130A70C89590250895982F80918E03882389F531
S1130A80992379F531E030938E038091610380934B
S1130A908F0320918303822F81708093B003809110
S1130AA066039091670390939103809390038091E0
S1130AB084038093920332273170267EE32FFF272D
S1130AC0EE0FFF1FEE59FC4F8081918190936703D5
S1130AD080936603232B2093830385E00E94850182
S1130AE008958091830380FF02C08B7F01C08D7FB6
S1130AF08093830308950F931F93082F162F8091DB
S1130B00D9038130D9F0813038F0823009F44AC0F9
S1130B10833009F00EC159C0002309F43EC110927C
S1130B20A4061092A3061092710510928D081092DB
S1130B30DF031092FC041092FB041FC1002309F090
S1130B402CC18091FB049091FC040E942D0590938C
S1130B50FC048093FB0482E08093D90310938D08F6
S1130B60143409F0E6C00BC18695869503C08091C4
S1130B7083038695817009F0DCC0809183039923F7
S1130B8011F0846001C082608093830380918303A9
S1130B90877E886080938303109284038FEF809311
S1130BA06103FBC0002309F0C4C06093DF0380919C
S1130BB0FB049091FC040E942D059093FC04809307
S1130BC0FB0483E08093D903E8C0809171058F3FD3
S1130BD009F4AFC0002309F447C0823008F4A9C067
S1130BE0E091A306EE2309F4D1C04E2F4150E42F27
S1130BF0FF27ED55F94F82819927382F2227442367
S1130C0011F4E2E002C0E42FE150FF27ED55F94F63
S1130C1082819927282B392B8091FB049091FC0425
S1130C202817390709F085C080E00E943B05309100
S1130C30DF038091ED042091EE04982F9F5F96309E
S1130C4008F090E0921709F474C0E82FFF27E351ED
S1130C50FB4F32838F5F8093ED04863010F0109247
S1130C60ED040E94AC0165C0823008F44EC0E091EE
S1130C70A406FF27ED55F94F8281482F5527342FBD
S1130C8020918303822F8695869586958370992774
S1130C908130910519F00297F9F40EC0277E206186
S1130CA020938303442311F485E001C080E0809302
S1130CB084033093610310C0809184038F3260F405
S1130CC0E0916603F0916703E80FF11D4083809182
S1130CD084038F5F809384038091A406E82FFF2709
S1130CE0ED55F94F62818F5F8093A406833010F035
S1130CF01092A40677278091FB049091FC040E9433
S1130D002D059093FC048093FB048091A306E82FA7
S1130D10FF27ED55F94F12838F5F8093A30683302D
S1130D2010F01092A306809171058F5F8093710576
S1130D3034C01092A4061092A3061092D903109204
S1130D40710510928D081092DF031092FC0410922A
S1130D50FB04809193038D7F8093930381E00E9431
S1130D603B0580918203882331F084E08093D9038A
S1130D700E94B80412C0002381F081E023CF809147
S1130D808303982F917080FDEFCEF1CE8091A7065A
S1130D909927382F222742E036CF1F910F910895CB
S1130DA01F920F920FB60F9211242F933F934F93DC
S1130DB05F936F937F938F939F93AF93BF93EF93BF
S1130DC0FF938091C00087FF42C06091C600E0910C
S1130DD0FD04F091FE04309719F18091D0089091B0
S1130DE0D108E80FF91F608301969093D10880938E
S1130DF0D0082091DC083091DD088217930738F180
S1130E001092FE041092FD0480916B058330F9F07A
S1130E108091C1008F778093C10010926B0517C039
S1130E206E3719F460E081E010C0809193036D3750
S1130E3021F48260809393030AC081FF05C08D7FF3
S1130E408093930380E2682780E00E947B05FF91F2
S1130E50EF91BF91AF919F918F917F916F915F912E
S1130E604F913F912F910F900FBE0F901F901895A7
S1130E70982F8D57823068F480919303816080931A
S1130E80930380E28927809370058DE78093C803DC
S1130E9002C09093C80361E070E088EC93E00E9484
S1130EA0E8049927089578941F920F920FB60F9231
S1130EB01124FF920F931F932F933F934F935F93AC
S1130EC06F937F938F939F93AF93BF93CF93DF934E
S1130ED0EF93FF932091DB033091DC038091AB0609
S1130EE09091AC062817390780F4E0918304F091BF
S1130EF08404E20FF31F80812F5F3F4F3093DC03A4
S1130F002093DB030E94DC04D4C01092840410926A
S1130F1083041092DD038091C1008F7B8093C10014
S1130F208091930380FF0EC08E7F80939303809102
S1130F3070058093C80361E070E088EC93E00E9440
S1130F40E804B7C080916C05843009F494C08530FE
S1130F5040F4823021F18330B8F5813009F0A4C027
S1130F600DC0863009F495C0863008F48BC08730F4
S1130F7009F496C0883009F097C099C08091810423
S1130F800E943807182F83E080936C0560918104D8
S1130F908091DA089091DB080E942D0510C08091A1
S1130FA098080E943807182F83E080936C0560919D
S1130FB098088091DA089091DB080E942D0590939F
S1130FC0DB088093DA086EC0FFB6F894E091000560
S1130FD0FF27EE0FFF1FEA57FB4F80810E9438075F
S1130FE0082F10910005C12FDD27FE01EE0FFF1F12
S1130FF0EA57FB4F60818091DA089091DB080E94E8
S11310002D059093DB088093DA0820917E042F5FEE
S113101020937E04113039F580918A03E091850391
S1131020F0918603E80FF11DE0818F5F80938A03BE
S113103090918903981730F482E08093870440E00C
S113104050E002C04E2F5527DE01AA0FBB1FFD0141
S1131050EB57FB4F8081823031F02F3F21F0AA57AC
S1131060BB4F4C9303C084E080936C05102F8F2DED
S113107099278FBF17C08091DA080E943807182F6C
S113108085E00BC08091DB080E943807182F86E0AA
S113109004C00E941D05182F87E080936C0502C0D0
S11310A088E003C0112329F089E080936C050E9435
S11310B0AC01FF91EF91DF91CF91BF91AF919F91DF
S11310C08F917F916F915F914F913F912F911F91DC
S11310D00F91FF900F900FBE0F901F9018951F92C5
S11310E00F920FB60F9211248F938091C80087FF3F
S11310F002C08091CE008F910F900FBE0F901F9071
S1131100189578941F920F920FB60F9211240F9096
S11311100FBE0F901F90189578941F920F920FB6E0
S11311200F9211240F900FBE0F901F901895789472
S11311301F920F920FB60F9211240F900FBE0F90B3
S11311401F90189578941F920F920FB60F92112446
S11311508F939F9380919600909197009F918F9188
S11311600F900FBE0F901F90189578941F920F92B6
S11311700FB60F9211242F933F938F939F932FB702
S1131180F89433278091F9049091FA04019690938E
S1131190FA048093F9042FBF9F918F913F912F916F
S11311A00F900FBE0F901F9018951F920F920FB6BD
S11311B00F9211242F933F934F935F936F937F93D9
S11311C08F939F93AF93BF93EF93FF938091B0005E
S11311D08093B0008091B60081FDFCCF8091B30074
S11311E099270196AA27BB272091D3033091D403D2
S11311F04091D5035091D603280F391F4A1F5B1F16
S11312002093D3033093D4034093D5035093D60350
S113121078940E941204FF91EF91BF91AF919F9136
S11312208F917F916F915F914F913F912F910F908B
S11312300FBE0F901F9018951F93182F81E00E94E6
S1131240C2021EBD0DB407FEFDCF8EB599271F91B6
S113125008951F920F920FB60F9211248F929F92AE
S1131260AF92BF92CF92DF92EF92FF920F931F93B0
S11312702F933F934F935F936F937F938F939F939A
S1131280AF93BF93CF93DF93EF93FF932EB5E0918A
S11312906805F0916905309739F08091F5049091D3
S11312A0F604E80FF91F20838091F5049091F60469
S11312B001969093F6048093F50480E00E94210344
S11312C0C091F504D091F60480919D0390919E0302
S11312D0C817D90708F046C000919E0810919F08CE
S11312E080906805909069050F2EFAE0AF2EBB241C
S11312F0F02DAC0EBD1E8A159B0508F45C0164013B
S1131300CC0EDD1E7801EC0EFD1E15C00115110575
S113131019F0F701808101C080E00E941C0981144A
S1131320910411F0F601808321960894C11CD11C0C
S11313300894E11CF11CC5010197C817D90730F3C3
S113134081E00E9421030115110531F00C0F1D1FCE
S1131350F80180818EBD01C01EBCD093F604C093F9
S1131360F50411C0109269051092680510929F0847
S113137010929E0810929E0310929D031092F60400
S11313801092F5048EB5FF91EF91DF91CF91BF914B
S1131390AF919F918F917F916F915F914F913F9109
S11313A02F911F910F91FF90EF90DF90CF90BF90FE
S11313B0AF909F908F900F900FBE0F901F90189535
S11313C078941F920F920FB60F9211240F900FBEB4
S11313D00F901F90189578941F920F920FB60F924A
S11313E011242F933F938F939F93AF93BF932FB762
S11313F0F89433278091E9039091EA03A091EB03D9
S1131400B091EC030196A11DB11D8093E903909363
S1131410EA03A093EB03B093EC032FBFBF91AF910A
S11314209F918F913F912F910F900FBE0F901F901E
S113143018951F93CF93DF93182FEA010E9465023A
S1131440282F87FD0FC080917205909173050C962B
S1131450332727FD3095412F5527BE01820F931F57
S11314600E948C24DF91CF911F9108951F93CF93F5
S1131470DF93EC0120E030E0FC01422F81918823CE
S113148029F02F5F3F4F20313105B9F7142F403138
S113149008F01FE06FE0812F8F5F0E94650287FDD7
S11314A019C0282F332727FD3095E0917205F0915C
S11314B07305E20FF31F10551487105B80917205BA
S11314C090917305820F931F412F5527BE010D96EE
S11314D00E948C24DF91CF911F91089580919603EF
S11314E08C3118F04CE150E002C0482F55278CE1B4
S11314F0EDEAF8E011928A95E9F7909196038091CC
S1131500940320E030E0ADEAB8E00FC0E82FFF27F5
S1131510E755FA4FE081992329F08F5F8A3F09F458
S113152080E09150ED932F5F3F4F2417350771F7FB
S113153090939603809394034CE161EA78E08FEFF3
S11315409FEF0E940F02882319F088E00E94850112
S113155008958FB7F894282F33278091970382300A
S113156021F42FBF80E090E0089590E080919603ED
S1131570882309F491E0992321F02FBF81E090E0C2
S1131580089582E0809397032FBF0E946E0A80E043
S113159090E00895CF93DF93EC018FE38A878091E5
S11315A0E8038F5F8093E8038B8380919B039927E3
S11315B09F938F9380E091E09F938F930E949C244C
S11315C00E94A90A0F900F900F900F9080919B0397
S11315D0882319F085E090E00EC0D0936E05C09387
S11315E06D0581E080939B031092BA048EE00E9403
S11315F0850180E090E0DF91CF9108951F93182F2B
S113160080919703813049F4809196038D3728F0B7
S113161082E0809397030E946E0A8FB7F894282F74
S11316203327909196039A3FA8F480919503E82F6D
S1131630FF27E755FA4F10838F5F809395038A3F06
S113164011F4109295039F5F909396032FBF80E04F
S113165090E003C02FBF8FEF9FEF1F9108951F925B
S11316600F920FB60F9211248F938091B000809344
S1131670B0008091B60081FDFCCF8F910F900FBE1A
S11316800F901F9018950F931F93CF93DF93182FEC
S11316900FB7F89480919A03882311F40E942A03C7
S11316A0802F99278FBF8FB7F894C82FDD272C2F51
S11316B080919A03882361F481E080939A031093C4
S11316C0820482E10E948501CFBF80E090E021C0C6
S11316D0E12FFF27E058FB4F80818F3F89F4E09191
S11316E07003E11789F40CC010936F0304C0FF2743
S11316F0E058FB4F10831093700380E090E002C029
S113170085E090E02FBF05C080916F038F3F79F78C
S1131710EBCFDF91CF911F910F9108951F93982FD5
S11317201FB7F89480919903823099F580916E03E4
S1131730891779F580916C0320E030E08F3F11F434
S113174021E030E0232BF1F49FEF90936E038F3F61
S113175019F42FEF30E00DC0282F3327F901EF5291
S1131760FC4F808180936C038F3F11F490936D0341
S113177090832093CE0381E0809399038CE00E94B0
S1131780850105C08FEF80936E031092990321E0C9
S113179001C020E0812F99278FBF90E0213009F408
S11317A091E081E09827892F99271F91089580E07F
S11317B00E94AD02882391F48FB7F894282F332721
S11317C080919A03882369F482E080939A031092AB
S11317D071032FBF0E942A03249A2C9A81E090E07F
S11317E008952FBF80E00E94430B80E090E00895AD
S11317F0662359F480919603882319F00E946E0A97
S1131800089581E080939703089588E00E948501FC
S11318100895EF92FF920F931F93CF93DF93182FA6
S11318207B01042FE82FFF27EE0FFF1FE950FB4F2A
S11318301182108210926803A091F704B091F80409
S1131840109721F08091990880FF0EC081E0809369
S1131850680303C087E00E9485011123C9F4602F47
S1131860C7010E94F80B14C0FD013596248133276B
S1131870ED016D817727762F662781819927682B63
S1131880792BAD0186810E94BF01882331F3E2CF19
S1131890DF91CF911F910F91FF90EF9008951F93C7
S11318A080916F05813009F43CC08091DA03E091A6
S11318B07205F091730580831FB7F8948091AE038D
S11318C09091AF03892B71F4809172059091730507
S11318D09093AF038093AE0382E08093DE038BE0AA
S11318E00E9485012091720530917305215D3F4F5F
S11318F088E02D38380710F027EB36E03093730575
S1131900209372058091AE039091AF032817390795
S113191011F485E001C081E080936F05812F992740
S11319208FBF1F910895DF92EF92FF920F931F9341
S1131930CF93DF93CDB7DEB722970FB6F894DEBF0F
S11319400FBECDBF8B017A01882351F50E9450024E
S1131950882331F1DD2480E090E007C0EC3511F0FC
S1131960EF3211F4D22ED3940196282FF801E80F08
S1131970F11DE081EE2391F78FE091E00E94360A99
S1131980C8018D0D911D0E94360AFA82E982AE01CA
S11319904F5F5F4F65E082E00E94190A0E944F0C7E
S11319A022960FB6F894DEBF0FBECDBFDF91CF9164
S11319B01F910F91FF90EF90DF9008951F93182FC0
S11319C090E080919B03823009F491E044ED50E073
S11319D066E171E0892F0E94930C8FB7F8949927E0
S11319E01093C7038FBF8EE00E9485011F91089555
S11319F01F93182F90E08091D308833009F491E06D
S1131A0042E950E066E571E0892F0E94930C109240
S1131A10D308812F0E94DE0C1F9108951F93CF934A
S1131A20DF93182FEB0190E080917D04882309F463
S1131A3091E049E550E068E971E0892F0E94930C38
S1131A401093A80581E080937D0440918400509117
S1131A508500EFB7F8942091840030918500C90186
S1131A60841B950B03968C179D0720F0B9016D5FBD
S1131A707F4F03C0BA016C0F7D1F6115710511F40E
S1131A8061E070E061507040709389006093880059
S1131A9082E086BB80916F00826080936F008E2FFE
S1131AA099278FBFDF91CF911F9108951F93CF93F3
S1131AB0DF93182FEB0180E0183008F481E049E34C
S1131AC050E06EEC71E00E94930C81E090E002C063
S1131AD0880F991F1A95E2F72CA5282B2CA7DF91C4
S1131AE0CF911F9108951F93CF93DF93182FEB018C
S1131AF080E0183008F481E040E450E06EEC71E0DE
S1131B000E94930C81E090E002C0880F991F1A95FF
S1131B10E2F780952CA528232CA7DF91CF911F9164
S1131B2008951F93CF93DF93EC01162F90E0862F37
S1131B3081508D3708F491E04AE653E06EE072E09C
S1131B40892F0E94930C20E0812F99270396C09738
S1131B5008F421E04BE653E06EE072E0822F0E942D
S1131B60930C1E5F1883DF91CF911F91089543E773
S1131B7053E06EE072E081E00E94930C87E290E013
S1131B800895EF92FF920F931F93CF93DF93082F43
S1131B907B01EA01122F0E94B70D8B50811718F4B4
S1131BA086E090E08BC0FE0131968181298140E07E
S1131BB09927982F88273327822B932B87749C7C13
S1131BC08154984809F441E0442321F481E4898351
S1131BD088E88183155F612FCE010E94910D2FB794
S1131BE0F89433278091690390916A032FBF888703
S1131BF0892F992789872FB7F894332780916B030E
S1131C002FBF99278C831D820B87EE828F2D9927F6
S1131C108F838FB7F894282F3327809199038823D3
S1131C2071F482E08093990310926E032FBFCE016A
S1131C300E94CA0A9927182F882399F00FC02FBF32
S1131C40D093D003C093CF038FB7F894C82FDD2768
S1131C502C2F80919903882399F406C080E00E9478
S1131C608E0B812F99272AC081E0809399031092CB
S1131C70CE038CE00E948501CFBF80E090E01EC0BF
S1131C808091D1038F3F89F4E0916D03EE2369F0D5
S1131C9010C010926C0304C0FF27EF52FC4F108257
S1131CA010926D0380E090E002C085E090E02FBFC9
S1131CB005C080916C038F3F79F7EBCFDF91CF9113
S1131CC01F910F91FF90EF900895EF92FF920F9361
S1131CD01F93E0910905E1FFCAC0209101053091ED
S1131CE002054091030550910405E0900505F0902C
S1131CF006050091070510910805621B730B840B00
S1131D00950B6E157F058007910708F4B0C0E0FFBE
S1131D1004C0ED7FE09309050CC02E0D3F1D401F4C
S1131D20511F2093010530930205409303055093FE
S1131D3004058091EB049091EC0401969093EC04DB
S1131D408093EB049F938F938BE492E09F938F9304
S1131D500E949C240E94A90A0F900F900F900F904C
S1131D6080919803882309F082C00E94B70D8B509C
S1131D70843008F47CC080915F0390916003809369
S1131D808605892F9927809385058091EB0490918E
S1131D90EC0480938805892F9927809387058FEF1A
S1131DA080937F058093800586E0809384058091ED
S1131DB0920890919308892B09F04DC009E715E02A
S1131DC010939308009392086FE0C8010E94910D4C
S1131DD080917203882309F445C080918405609141
S1131DE080057727762F662720917F053327622B7E
S1131DF0732B1092720324E0A8010E94C10D99274D
S1131E00282F882379F181E080937203109293083C
S1131E1010929208822F99279093A6038093A5038A
S1131E20882351F488E592E00E94B3240E94A90A11
S1131E3081E0809398031BC09F938F9386E692E082
S1131E409F938F930E949C240E94A90A0F900F9045
S1131E500F900F900CC085E090E09093A6038093C0
S1131E60A503EACF1092A6031092A503DBCF8AE064
S1131E700E9485011F910F91FF90EF9008951F9389
S1131E80CF93DF93182FEB01E82FFF27EE0FFF1FEF
S1131E90EE56F74F1182108210927203E09192086D
S1131EA0F0919308309721F080917C0480FF15C055
S1131EB081E08093720303C084E10E9485011123B1
S1131EC0F1F487E792E00E94B3240E94A90AC9575B
S1131ED0D540A9F41092980312C020812D503327C5
S1131EE067817727762F662786819927682B792B38
S1131EF0AF0183850E94C10D882309F3DDCFDF91F3
S1131F00CF911F9108952F923F924F925F926F92BB
S1131F107F928F929F92AF92BF92CF92DF92EF9275
S1131F20FF920F931F93CF93DF931C0180919C0327
S1131F30882309F0D9C18091A008853009F0D4C163
S1131F400E94D70B882309F4CFC18091A806882367
S1131F5009F0CAC1B10182E00E94BA03882311F4D6
S1131F6010E003C0E1011EA51F708091BB04181787
S1131F7001F11093BB0480E00E94AD0241E950E0FE
S1131F806EE072E00E94930C42E950E06EE072E071
S1131F9081E00E94930C2C9885EC8EBD0DB407FE55
S1131FA0FDCF8EB510681EBD0DB407FEFDCF8EB5F6
S1131FB02C9A41010894811C911CF4018181E10156
S1131FC0298140E09927982F88273327822B932B48
S1131FD087749C7C8154984809F441E0442381F13E
S1131FE080E00E94AD024DE950E06EE072E00E9494
S1131FF0930C4EE950E06EE072E081E00E94930C95
S11320002C9886E88EBD0DB407FEFDCF8EB51EBCA0
S11320100DB407FEFDCF8EB52C9A99278F71907061
S11320202091E7034091D203240F312D311D43E069
S1132030359527954A95E1F7281739070CF454C1CB
S113204080E00E94AD0241E950E06EE072E00E943F
S1132050930C42E950E06EE072E081E00E94930C40
S11320602C9882EC8EBD0DB407FEFDCF8EB589E0B1
S11320708EBD0DB407FEFDCF8EB52C9A0E944E0383
S11320807B018C01B10184E00E94BA03882319F416
S11320904424552406C0E101888185502101480E5D
S11320A0511C80E00E94AD024DE950E06EE072E008
S11320B00E94930C4EE950E06EE072E081E00E94D1
S11320C0930C2C9881E88EBD0DB407FEFDCF8EB520
S11320D01EBC0DB407FEFDCF8EB52C9A8F718930CE
S11320E069F180E00E94AD024DE950E06EE072E0DB
S11320F00E94930C4EE950E06EE072E081E00E9491
S1132100930C2C9881E88EBD0DB407FEFDCF8EB5DF
S11321101EBC0DB407FEFDCF8EB52C9A90E08F71D6
S1132120813009F491E043EC51E06EE072E0892FD4
S11321300E94930C87E08093A008D6C08FB7F894D0
S113214099272B9AC0918400D09185008FBF2B983A
S113215090E08091A806882309F491E042ED51E0D3
S11321606EE072E0892F0E94930C2C9880E68EBD5D
S1132170F10190810DB407FEFDCF8EB59EBD792F80
S11321807250773010F4672F01C067E0F401962F86
S113219021910DB407FEFDCF8EB52EBD9150C1F730
S11321A06150F401E60FF11D6F5F3196CE19DF091E
S11321B0CE55DF4F3E01882477FC8094982C6E0C1A
S11321C07F1C801E911E4114510419F4972F961BF5
S11321D020C0E20188819981AA81BB81861997096F
S11321E0A809B9098B83292F3A2F4B2F55272A8306
S11321F09D014427552729838B2F9927AA27BB277D
S11322008883E4CF20810DB407FEFDCF31968EB5CF
S11322102EBD9150B8F70DB407FEFDCF8EB52C9AA4
S113222080E00E94AD0241E950E06EE072E00E945D
S1132230930C42E950E06EE072E081E00E94930C5E
S11322402C9882EC8EBD0DB407FEFDCF8EB586E0D2
S11322508EBD0DB407FEFDCF8EB52C9A41145104EA
S113226089F1F2018081E1802281A3803327442710
S11322705527542F432F322F22279927AA27BB27CC
S1132280B82FAA2799278827FF2400271127870119
S1132290FF24EE248E299F29A02BB12BBB24CC2410
S11322A0DD248A299B29AC29BD29282B392B4A2BCB
S11322B05B2B260D371D481D591DE20128833983E8
S11322C04A835B83B10181E00E94560DF10160A64F
S11322D071A682A693A686E08093A00884E08093EA
S11322E09C0380E090E002C085E090E0DF91CF9114
S11322F01F910F91FF90EF90DF90CF90BF90AF9020
S11323009F908F907F906F905F904F903F902F9011
S113231008956F927F928F929F92AF92BF92CF92C5
S1132320DF92EF92FF920F931F93CF93DF93CDB77A
S1132330DEB722970FB6F894DEBF0FBECDBF8091F3
S1132340A806882309F48CC20E94D70B882309F4B9
S113235087C28FB7F894992780907A0490907B0471
S11323608FBF1092A80680E00E94AD024DE950E0B4
S11323706EE072E00E94930C4EE950E06EE072E071
S113238081E00E94930C2C988FE88EBD0DB407FE5B
S1132390FDCF8EB51EBC0DB407FEFDCF8EB52C9AB5
S11323A0F82EA82EBB24A6FE79C00E9450028823D2
S11323B009F474C082E892E00E94360A8091840095
S11323C0909185009A838983AE014F5F5F4F65E0EA
S11323D082E00E94190A80E00E94AD024DE950E0BB
S11323E06EE072E00E94930C4EE950E06EE072E001
S11323F081E00E94930C2C9881E88EBD0DB407FEF9
S1132400FDCF8EB51EBC0DB407FEFDCF8EB52C9A44
S11324108983AE014F5F5F4F63E081E00E94190A38
S113242080E00E94AD024DE950E06EE072E00E944F
S1132430930C4EE950E06EE072E081E00E94930C50
S11324402C9882E88EBD0DB407FEFDCF8EB51EBC60
S11324500DB407FEFDCF8EB52C9A89838E010F5FD4
S11324601F4FA80163E081E00E94190AF982A801C4
S113247063E081E00E94190A8091A0088983A80181
S113248062E081E00E94190A80919C038983A8017B
S113249062E081E00E94190A0E944F0CA0FE2FC046
S11324A080919C03833011F08730A1F490E08091F7
S11324B0A008843009F491E040ED52E06EE072E04F
S11324C0892F0E94930C85E08093A00888E0809374
S11324D09C0315C0843061F490E08091A00886309C
S11324E009F491E047ED52E06EE072E0892F05C0F7
S11324F04AED52E06EE072E080E00E94930C54E0FA
S1132500652E712C6A207B20A2FE96C090919C03BC
S1132510963019F410929C0303C0992309F082C0E9
S11325209091A008953019F481E090E007C020E074
S113253030E0973011F421E030E0C90147EE52E079
S11325406EE072E00E94930C24E0F21609F058C089
S113255080E00E94AD024DE950E06EE072E00E941E
S1132560930C4EE950E06EE072E081E00E94930C1F
S11325702C9886E88EBD0DB407FEFDCF8EB51EBC2B
S11325800DB407FEFDCFFEB42C9A4FE1F4228091E6
S1132590D203982F969596955F2D591B850F80939E
S11325A0D2030091AB031091AC03B80182E00E9406
S11325B0730DB80183E00E94560DF801F6A60E943F
S11325C04E037B018C01C090AB03D090AC03B601E9
S11325D081E00E94560D8E189F0849EF5FEF840E2C
S11325E0951EC401AA2797FDA095BA2F8E0D9F1D95
S11325F0A01FB11FF60180A791A7A2A7B3A70EC081
S11326006091AB037091AC0383E00E94730D609101
S1132610AB037091AC0381E00E94730D85E080935D
S11326209C030AC080E0913009F481E04BE053E060
S11326306EE072E00E94930CA3FE12C180919C0391
S1132640843009F074C090E08091A008863009F4C9
S113265091E042E153E06EE072E0892F0E94930C16
S113266085E08093A00810929C039091E20393303C
S113267051F44BE550E06CE872E081E00E94930C69
S11326801092E2034BC080E0913009F481E041E60E
S113269050E06CE872E00E94930C90E080917D041D
S11326A0882309F491E042E650E06CE872E0892F57
S11326B00E94930CE091B804F091B90482812181C5
S11326C09927982F88273327822B932B85FF21C0A6
S11326D087749C7C81549848E1F4878126819927EA
S11326E0982F88273327822B932B8F5F9F4F89F056
S11326F090E080917D04882309F491E0992349F0C6
S113270069E973E082E00E940E0D82E08093E203A7
S113271005C01092E20380E00E94F80C80E0672874
S113272009F481E049E153E06EE072E097C085303E
S113273009F08FC09091A008953019F481E090E0E1
S113274007C020E030E0973011F421E030E0C90107
S11327504DE153E06EE072E00E94930C8091A0087A
S1132760873009F04BC080E00E94AD024DE950E093
S11327706EE072E00E94930C4EE950E06EE072E06D
S113278081E00E94930C2C9881E88EBD0DB407FE65
S1132790FDCF8EB51EBC0DB407FEFDCF8EB52C9AB1
S11327A090E08F71893009F491E041E253E06EE0EA
S11327B072E0892F0E94930C80E00E94AD0241E9EF
S11327C050E06EE072E00E94930C42E950E06EE04B
S11327D072E081E00E94930C2C9882EC8EBD0DB4C3
S11327E007FEFDCF8EB586E08EBD0DB407FEFDCF8E
S11327F08EB52C9A85E08093A00827C080E00E94C3
S1132800AD024DE950E06EE072E00E94930C4EE997
S113281050E06EE072E081E00E94930C2C9886E810
S11328208EBD0DB407FEFDCF8EB51EBC0DB407FEE4
S1132830FDCF8EB52C9A9091E7038F71292F2695A1
S11328402695821B980F9093E70389E080939C035D
S11328500FC04FE253E06EE072E080E00E94930C00
S113286090919C03992309F496C3993009F04CC2C2
S11328702C9880E28EBD0DB407FEFDCF8EB51EBC34
S11328800DB407FEFDCF8EB5E82EFF241E2D1330A8
S113289008F4A3C40E94B70D2E2D3327992702965E
S11328A0821793070CF499C41EBCE091AB03F0911A
S11328B0AC03E0820EEFB02EBE0C56E05B1510F0B8
S11328C00B2D01C007E09F012F5F3F4F902FF901AF
S11328D0CC24DD240DB407FEFDCF8EB51EBC808351
S11328E08191A6014827042E4295407F4025052E5C
S11328F0542F42954F700426469554274527440F7C
S1132900440F440F40256A01915021F70150790189
S1132910E00EF11C0F5F0894E11CF11CE091AB0385
S1132920F091AC0381818770823009F491E099239E
S1132930B9F08091E203823019F080E090E01DC08C
S113294010E0BF018091B8049091B9040E94730310
S1132950882309F411E081E01827812F99270DC0FD
S11329608FB7F894282F332790E08091FF048330A9
S113297008F491E02FBF892F9927892B09F42DC4DE
S11329802B2D201B1CC00DB407FEFDCF8EB51EBC25
S1132990F701808381917F01A6014827042E429587
S11329A0407F4025052E542F42954F7004264695AE
S11329B054274527440F440F440F40256A012150F2
S11329C010F70DB407FEFDCF8EB51EBC9601282767
S11329D0022E2295207F2025032E322F22952F7040
S11329E00226269532272327220F220F220F202585
S11329F00DB407FEFDCF8EB51EBC2827022E2295EE
S1132A00207F2025032E322F22952F700226269513
S1132A1032272327220F220F220F20250DB407FE71
S1132A20FDCF8EB5E091AB03F091AC0385A72C9A52
S1132A3085E08093A00810929C03232B09F0A7C281
S1132A40E090AB03F090AC0357010894A11CB11CB7
S1132A50F701818190E08770823009F491E0192FA9
S1132A609091E203923019F481E090E007C020E0F5
S1132A7030E0992311F421E030E0C90147E850E047
S1132A806CE872E00E94930C8091E203823071F54D
S1132A90112309F4C4C3B7018091B8049091B90417
S1132AA00E947303882309F49FC34BE850E06CE849
S1132AB072E081E09EC391E043E650E068E971E092
S1132AC0892F0E94930C80916F008D7F80936F00FB
S1132AD010927D046091B8047091B90480E00E9462
S1132AE0560D1092E20380E00E94F80C112309F0C5
S1132AF006C1C7010E948D038823F9F063E08CEBC3
S1132B0094E00E94910D82E08093BD041092BE0473
S1132B10F50182818093BF048CEB94E00E94830FC3
S1132B20882321F483E08093E20307C04FE950E057
S1132B306CE872E080E00E94930C00918400109194
S1132B408500C7010E948D03882311F0045E1C4F89
S1132B501093D8030093D70380918400909185004B
S1132B60B801681B790B1616170664F48091D30814
S1132B70882329F481E00E940E0D80E801C080685A
S1132B808093D308F501808527819927582F4427FE
S1132B903327422B532B8091B103282F3327F9017C
S1132BA0EE0FFF1FE355F94F8081918100916A0573
S1132BB08417950749F4F901EC52F74F8081801787
S1132BC009F468C0802F1BC0CC24DD2480E090E091
S1132BD0ADEAB6E0E4EDF8E0BF01182F9C018D9159
S1132BE09C9111978417950789F42093B1039091D0
S1132BF06A05FB018081891709F44CC0892F8F5F16
S1132C0080936A058083E0E8CE2E2AC08081902FCD
S1132C10981BC91610F4C92ED22E1F5FC901019644
S1132C206F5F7F4F1296319685309105B1F615305E
S1132C30B9F4D092B103AD2DBB27FD01EE0FFF1FF8
S1132C40E355F94F5183408380916A058F5F8093E8
S1132C506A05FD01EC52F74F8083A252B74F1C92D4
S1132C6090916A05892F8F778F3781F4EEE7EC1501
S1132C7068F4E4EDF8E0292F207880818F678913C8
S1132C802083319648E0E93DF407B9F78091B10318
S1132C90282F3327F5019281A22FBB27FD01E25291
S1132CA0F74F808180FF07C0FD01EC58FA4F808107
S1132CB0981729F102C081608083AC58BA4F9C9365
S1132CC0DFB6F8948091FF048330B0F4E091AD0353
S1132CD0E80FE33008F0E350FF27EE0FFF1FE15643
S1132CE0FC4F00811181F182E0828F5F8093FF04A9
S1132CF08FE00E94850178018D2D99278FBFF09276
S1132D00AC03E092AB033AC1892F8150833008F0C1
S1132D10E5C081508230A0F48091A008813081F414
S1132D2020E080917D04882309F421E0222341F0EE
S1132D302B986BE273E083E00E940E0D82E0B6C034
S1132D40933009F080C08091A008833009F01FC13E
S1132D500E94D70B882309F476C090E08091A806DE
S1132D60882309F491E046E551E06EE072E0892F92
S1132D700E94930C80E00E94AD024DE950E06EE0A9
S1132D8072E00E94930C4EE950E06EE072E081E044
S1132D900E94930C2C988FE88EBD0DB407FEFDCFD6
S1132DA08EB51EBC0DB407FEFDCF8EB52C9A809156
S1132DB0810080648093810080E286BB80916F00F3
S1132DC0806280936F001091CD0380E00E94AD0279
S1132DD041E950E06EE072E00E94930C42E950E059
S1132DE06EE072E081E00E94930C2C9888EC8EBD1A
S1132DF00DB407FEFDCF8EB510661EBD0DB407FEE3
S1132E00FDCF8EB52C9A80E00E94AD0241E950E0DE
S1132E106EE072E00E94930C42E950E06EE072E0D2
S1132E2081E00E94930C2C9882EC8EBD0DB407FEB9
S1132E30FDCF8EB586E08EBD0DB407FEFDCF8EB5F9
S1132E402C9A84E033C080919C038150823080F5B9
S1132E508091A008853061F50E94D70B882341F149
S1132E6080E00E94AD0241E950E06EE072E00E9411
S1132E70930C42E950E06EE072E081E00E94930C12
S1132E802C9882EC8EBD0DB407FEFDCF8EB583E089
S1132E908EBD0DB407FEFDCF8EB52C9A80916F00C8
S1132EA08F7D80936F001092A80683E08093A00822
S1132EB090919C03913049F48091A008833009F0EB
S1132EC066C02B9A9093A00855C0923009F056C062
S1132ED08091A008833009F05AC04CC0973009F0A3
S1132EE04DC04AE351E06EE072E081E00E94930C31
S1132EF09091A008913051F0933041F020E030E0FF
S1132F00953011F421E030E0C90102C081E090E085
S1132F104BE351E06EE072E00E94930C0E94D70BE9
S1132F20882361F11091CD0380E00E94AD0241E954
S1132F3050E06EE072E00E94930C42E950E06EE0D3
S1132F4072E081E00E94930C2C9888EC8EBD0DB445
S1132F5007FEFDCF8EB510661EBD0DB407FEFDCF76
S1132F608EB52C9A8091A008853021F484E080935A
S1132F70A00804C088E080939C0304C080919C0353
S1132F80883029F410929C038DE00E948501809181
S1132F909C03882331F58091A0088530F9F4809151
S1132FA0A8068823D9F48091E2038823B9F4809198
S1132FB0D308882399F490E080917D04882309F450
S1132FC091E0992359F080919B03813039F48EE08C
S1132FD00E94850180919C03882319F480E00E945B
S1132FE0CB0280917D04823009F0DFC010927D0411
S1132FF0D090A805F2E0DF1609F47CC023E0D216D5
S113300009F48BC041E0D41609F0CFC090E0809160
S1133010D308811191E048E650E066E571E0892F1C
S11330200E94930C8091D7039091D80360918400FF
S1133030709185002091D308203859F41092D30858
S113304080919B03813009F0B0C08EE00E9485011D
S1133050ACC07C01E61AF70A27FF03C01E141F0444
S1133060ECF00091E0031091E1038091E2038823E6
S1133070A9F4C8010E94830F9927882351F4B80149
S11330800E94730DD092E2031093B9040093B80424
S11330902DC09927182F882349F101C015E02091EC
S11330A0D308822F99278F77019769F420782260BB
S11330B02093D30880E198E00E94C603BC0181E01C
S11330C00E940E0D72C027FF0BC01E141F0444F48F
S11330D080E88093D308B70181E00E940E0D02C0FE
S11330E01092D308812F0E94DE0C5FC083E080938E
S11330F0D3085BC090E08091E203823009F491E050
S113310043E750E06CE872E0892F0E94930C109220
S1133110E20380E00E94F80C48C09091A00892302D
S113312019F4D092A0083FC080919C038630A1F589
S113313080E0953009F481E04CEB50E06EE072E001
S11331400E94930C10929C0380E00E94AD024DE912
S113315050E06EE072E00E94930C4EE950E06EE0A5
S113316072E081E00E94930C2C9881E88EBD0DB42E
S113317007FEFDCF8EB51EBC0DB407FEFDCF8EB588
S11331802C9A90E08F71863009F491E041EC50E084
S11331906EE072E0892F05C046EC50E06EE072E00C
S11331A080E00E94930C0E946A198FB7F894082F4C
S11331B011279091CA03913009F460C080E09138DE
S11331C009F481E04DE450E06AEC72E00E94930C53
S11331D081E08093CA030FBFB2C82C9A85E0809324
S11331E0A00810929C03D3CE4BE850E06CE872E048
S11331F080E00E94930C90E08091A805823009F44D
S113320091E042E650E068E971E0892F0E94930C56
S113321090E080917D04882309F44ECC4CCC4BE89B
S113322050E06CE872E081E00E94930C90E08091A1
S1133230A805823009F491E042E650E068E971E0C3
S1133240892F0E94930C90E080917D04811191E07C
S113325043E650E068E971E0892F0E94930C809165
S11332606F008D7F80936F0010927D046091B8048D
S11332707091B90480E00E94730D33CC1092CA039C
S11332800FBF22960FB6F894DEBF0FBECDBFDF91FD
S1133290CF911F910F91FF90EF90DF90CF90BF904F
S11332A0AF909F908F907F906F9008958FB7F89410
S11332B0282F33278091CA0381508093CA03803812
S11332C011F02FBF089581E08093CA032FBF0E949D
S11332D0891108958FB7F894282F33278091CA0352
S11332E0882329F080688093CA032FBF089581E062
S11332F08093CA032FBF0E948911089578941F9266
S11333000F920FB60F9211242F933F934F935F9315
S11333106F937F938F939F93AF93BF93CF93DF93D9
S1133320EF93FF938091860090918700C09186006F
S1133330D091870090E08091A806882309F491E059
S113334047E952E06EE072E0892F0E94930C8FB738
S1133350F8949927D0937B04C0937A0421E02093B6
S1133360A8068FBF0E946A19FF91EF91DF91CF9158
S1133370BF91AF919F918F917F916F915F914F9189
S11333803F912F910F900FBE0F901F901895789436
S11333901F920F920FB60F9211242F933F934F93C6
S11333A05F936F937F938F939F93AF93BF93EF93A9
S11333B0FF9380916F008D7F80936F0078949FB707
S11333C0F89480917D04813019F482E080937D0427
S11333D0892F99278FBF0E946A19FF91EF91BF919E
S11333E0AF919F918F917F916F915F914F913F9199
S11333F02F910F900FBE0F901F9018951F93CF938E
S1133400DF9380919B0399279F938F93CDEFD2E015
S1133410DF93CF930E949C240E94A90A2FB7F894AB
S113342033278091CA038F5F8093CA032FBF809193
S11334309B0399279F938F93DF93CF930E949C24A0
S11334400E94A90A80919B032DB73EB7285F3F4F86
S11334500FB6F8943EBF0FBE2DBF8823D9F58091D7
S11334609C03882349F58091A008813049F490E0B9
S113347080917D04882309F491E09923E9F005C043
S1133480853019F489E090E019C083E080939C03AF
S11334900E946A1980919B0399279F938F938DEFC4
S11334A092E09F938F930E949C240E94A90A84E037
S11334B080939B0310E018C085E090E0182F1F92C2
S11334C01F928DEF92E09F938F930E949C240E9401
S11334D0A90A0AC099279F938F93DF93CF930E94E1
S11334E09C240E94A90A15E00F900F900F900F9052
S11334F00E94561980919B0399279F938F938DEF78
S113350092E09F938F930E949C240E94A90A0F909B
S11335100F900F900F90812F9927DF91CF911F91DA
S113352008952F923F924F925F926F927F928F9263
S11335309F92AF92BF92CF92DF92EF92FF920F933E
S11335401F93CF93DF93CDB7DEB729970FB6F894C7
S1133550DEBF0FBECDBFE82FFF27E531F10508F030
S113356099C5EA5BFF4FEE0FFF1F0590F491E02D24
S1133570099480919908882309F48CC590E011E09E
S1133580BFC180917C04882309F484C520E011E044
S113359047C58FB7F8941092D20820916C0540E08B
S11335A0283009F441E030E0293009F431E04423C3
S11335B011F4332351F010926C05E0910005FF27BC
S11335C0EE0FFF1FEB57FB4F108299278FBF442349
S11335D011F4332319F1809198088F5F8093980830
S11335E0809181048334A1F49FB7F8942091EE0470
S11335F08091ED04821741F0822F8F5F8093EE0457
S1133600863010F01092EE04892F99278FBF0AC0DC
S1133610A0E0442309F4A1E071E006C0222311F0E4
S113362010E069C0A0E070E08FB7F894992720916A
S113363082038FBF222341F08FB7F89499272AE0A1
S113364020936C058FBF43C08FB7F894992760917E
S11336508504409187048FBF8FB7F894282F3327B0
S113366050E09091ED048091EE04981709F451E034
S11336702FBF552349F5662339F55FB7F89482E0E7
S1133680809385048FB7F894282F332740E09091D6
S1133690ED048091EE04981709F441E02FBF442310
S11336A011F080E006C0E091EE04FF27E351FB4FE8
S11336B0828180938604852F99278FBF83E480932A
S11336C08104109200050BC04150423010F010E00C
S11336D007C085E48093810481E08093000511E0B4
S11336E0772349F08FB7F8949927A0938B038FBF62
S11336F084E00E94850180916C058A3019F40E944F
S1133700B804C8C4112309F4C5C42FB7F8943327E7
S11337101092DB081092DA0810927E0481E0809304
S11337206C052FBF0E941D05882309F4B3C48FB70D
S1133730F894992729E020936C058FBF0E94AC016F
S1133740A9C48091C1008F7B8093C1008091C10086
S11337508F778093C10010926B051092DD038091E6
S1133760C10088608093C1008091C1008061809312
S1133770C1008091C10080688093C100809197034B
S1133780882309F087C483E793E09093E608809345
S1133790E5088FB7F894992721E0209397038FBF0A
S11337A00E94FE1999279093A6038093A5039F93E3
S11337B08F9384E193E09F938F930E949C240E94B3
S11337C0A90AD2C183E0D8C08091C100877F8093C9
S11337D0C1008091C1008F7E8093C1008FB7F8949F
S11337E09927109297032AC3109288031092870393
S11337F08FB7F894992710918B038FBF80918C0316
S1133800811113E0E0918503F091860380918D038B
S1133810882309F03FC4038580916803882351F409
S11338206091F7047091F8046E177F0719F4412F23
S11338300E94090C013B09F02DC40FB7F894112321
S113384039F08091DE0381508093DE038823D1F424
S11338502091AE033091AF03215D3F4F48E02D38F6
S1133860340710F027EB36E08091720590917305D0
S11338702817390759F03093AF032093AE0382E041
S11338808093DE038BE00E94850115C01092AF0384
S11338901092AE0380916F05853069F481E08093C6
S11338A06F050E945002882331F08EE293E00E945B
S11338B0360A0E944F0C802F99278FBFEBC38FB716
S11338C0F894992720919003309191034091B0038B
S11338D08FBF8FB7F894E42FFF27EE0FFF1FEE5929
S11338E0FC4F3183208320918303442311F02B7FE9
S11338F001C02D7F2093830310928E039927DDCF7F
S113390020919908812F8223C1F0E92FFF27EE0F20
S1133910FF1FE950FB4F4081518111821082812F9A
S11339208095282320939908992339F463E0CA01E8
S11339300E94F80B110F91E0E3CF9F5F983008F0DD
S1133940A9C3110FDDCF80916803E82FFF27EE0F85
S1133950FF1FE950FB4F6081718141E00E94090C17
S113396099C34CE161EA78E08FEF9FEF0E940F0268
S1133970882309F48FC388E00E9485018BC380915A
S1133980C903882361F520918E0830918F084091F6
S1133990900850919108EFB7F894FF2760919A0826
S11339A070919B0880919C0890919D08E090A703DA
S11339B0F090A8030091A9031091AA036E0D7F1D36
S11339C0801F911FEFBF20938E0830938F08409380
S11339D09008509391081092C9030E949E040E947B
S11339E0E9033AC00E94E9037B018C018FB7F89484
S11339F09927109297088FBF8091090581FF4AC3C8
S1133A008091010590910205A0910305B0910405F0
S1133A10A8019701281B390B4A0B5B0BDA01C9017A
S1133A202091050530910605409107055091080540
S1133A30281B390B4A0B5B0B2F3F6FEF36076FEFD9
S1133A4046076FE7560709F425C312161306140632
S1133A5015062CF0C801B7010E94650E1BC3209304
S1133A608E0830938F08409390085093910881E01A
S1133A708093C903C801B7010E949E040BC38FB78A
S1133A80F8949927E091AE03F091AF038FBF2081A2
S1133A903327AF016FEF7FEF81EB0E94BF018823D3
S1133AA009F4F8C28BE068CF2FB7F89433278091DC
S1133AB0CE0380936E0382E0809399032FBF80919D
S1133AC06E03882309F0E6C28091CF039091D0035E
S1133AD00E94CA0A082F1127002309F4DBC280E0E0
S1133AE00E948E0B2091CF033091D00380917203FA
S1133AF0882309F0CFC260919208709193086217ED
S1133B00730709F0C7C2402FBFC280919B03109274
S1133B109B03843071F51F921F928EE393E09F9371
S1133B208F930E949C240E94A90A0E94E903609337
S1133B3001057093020580930305909304058AEFB1
S1133B4090E0A0E0B0E08093050590930605A09373
S1133B500705B0930805809109058E7F82608093E4
S1133B6009058AE00E9485010F900F900F900F9035
S1133B7091C2853009F48EC2863009F48BC28093D9
S1133B809B0388C290E080919B038150823008F4AB
S1133B9091E047EB50E066E171E0892F0E94930CBD
S1133BA08FB7F89499271091C7038FBF80919B0317
S1133BB0823011F4112339F08091BA048F5F80931D
S1133BC0BA04863020F083E080939B033EC08FB715
S1133BD0F89499272091CA032F5F2093CA038FBFBB
S1133BE020916D0530916E058091D3088823E1F40E
S1133BF090E080917D04882309F491E09923A1F059
S1133C003093E1032093E00381E08093D30886EBB3
S1133C1093E20E94C603BC0181E00E940E0D82E083
S1133C2080939B0310E00AC08091BA04853011F49C
S1133C3083E001C081E080939B0315E00E94561944
S1133C4080919B03833009F025C210929B03E0907E
S1133C506D05F0906E05F70182858F3309F01AC265
S1133C6080E00E948E0B80917203882309F012C2B7
S1133C7060919208709193086E157F0509F00AC24D
S1133C80412F02C28FB7F894282F33278091FF0465
S1133C90882309F4C3C1E091AD03FF27EE0FFF1F92
S1133CA0E156FC4FE080F1802FBFF70182858F330E
S1133CB0B1F563851081878126819927582F442780
S1133CC03327422B532B8FB7F894992720916903FC
S1133CD030916A038FBF4217530719F04F5F5F4F4C
S1133CE011F5663001F58DE493E00E94B3240E943F
S1133CF0A90A1131C1F4F701868527859927982FE0
S1133D0088273327822B932B80FF02C05D9801C044
S1133D105D9A81FF02C05F9806C05F9A04C08FB7A6
S1133D20F89499278FBF9FB7F8948091AD03E82F3B
S1133D30FF27EE0FFF1FE156FC4FF182E0828F5FF9
S1133D408093AD03833010F01092AD038091FF0493
S1133D5081508093FF04892F99278FBF93CFFFB79A
S1133D60F983F8942090E3033090E4034090E50352
S1133D705090E603662477248824AEE4AA2EF3E860
S1133D80BF2ECC24DD24EE24FF2400E010E0222DFD
S1133D90332D442D552D662D772D882D90E00E94CE
S1133DA07F222A833B834C835D836E837F83888752
S1133DB09987822E932EA42EB52E2401350100E27C
S1133DC00E947D23A22EB32EC42ED52EA3019201D0
S1133DD056954795379527952A0D3B1D4C1D5D1D1E
S1133DE057FF05C05F772F5F3F4F4F4F5F4F2093C3
S1133DF0E3033093E4034093E5035093E6036981BE
S1133E00862F99278FBF8FB7F89499273093CC03C7
S1133E102093CB0313C08FB7F894992710926905A8
S1133E201092680510929F0810929E0810929E03AB
S1133E3010929D031092F6041092F5043ECD2FB714
S1133E40F8943327809182048093710382E08093F5
S1133E509A032FBF80917103882309F01BC1249A10
S1133E602C9A8091A008882309F0D5C08EEF91E0A8
S1133E70019701960197E1F729982B9886E090E045
S1133E80019701960197E1F7299A80E00E94AD021B
S1133E9041E950E06EE072E00E94930C42E950E088
S1133EA06EE072E081E00E94930C2C9883EC8EBD4E
S1133EB00DB407FEFDCF8EB51EBC0DB407FEFDCFBD
S1133EC08EB52C9A80E00E94AD0241E950E06EE08C
S1133ED072E00E94930C42E950E06EE072E081E0EF
S1133EE00E94930C2C9882EC8EBD0DB407FEFDCF7E
S1133EF08EB588E08EBD0DB407FEFDCF8EB52C9A2D
S1133F008EEF91E0019701960197E1F780E00E941E
S1133F10AD0241E950E06EE072E00E94930C42E988
S1133F2050E06EE072E081E00E94930C2C988EECDD
S1133F308EBD0DB407FEFDCF8EB58DE48EBD0DB4E0
S1133F4007FEFDCF8EB52C9A80E00E94AD0241E9B8
S1133F5050E06EE072E00E94930C42E950E06EE0A3
S1133F6072E081E00E94930C2C9889EC8EBD0DB414
S1133F7007FEFDCF8EB587EC8EBD0DB407FEFDCFD9
S1133F808EB52C9A80E00E94AD0241E950E06EE0CB
S1133F9072E00E94930C42E950E06EE072E081E02E
S1133FA00E94930C2C9885EC8EBD0DB407FEFDCFBA
S1133FB08EB580E88EBD0DB407FEFDCF8EB52C9A6C
S1133FC01092BB048BE08093CD0380E00E94AD028D
S1133FD041E950E06EE072E00E94930C42E950E047
S1133FE06EE072E081E00E94930C2C9888EC8EBD08
S1133FF00DB407FEFDCF8EB58BE68EBD0DB407FE66
S1134000FDCF8EB52C9A2B9A81E08093A00880E096
S11340100E94CB023FC00E946A193CC02FBF3AC025
S113402090917C04812F8923F9F0E22FFF27EE0F72
S1134030FF1FEE56F74FE080F18011821082812F2E
S11340408095982390937C04222371F487E792E06F
S11340500E94B3240E94A90A89E7E81685E0F806BD
S1134060B1F41092980313C02F5F283098F4110F05
S1134070D7CF80917203E82FFF27EE0FFF1FEE5674
S1134080F74F6081718141E00E943F0F03C0110F1F
S113409021E0C6CF29960FB6F894DEBF0FBECDBF80
S11340A0DF91CF911F910F91FF90EF90DF90CF9010
S11340B0BF90AF909F908F907F906F905F904F9044
S11340C03F902F900895809194088F3FB1F0282F4E
S11340D03327F901EE54FC4F8081809394088F3F7D
S11340E011F48093D9088FEF80832F3F31F0822F12
S11340F00E94911A81E090E0089580E090E0089594
S1134100FF920F931F93FFB6F89414BE88E10FB685
S1134110F89480936000109260000FBE45E150E077
S11341206FEF70E082EB93E00E9495248FEF809311
S113413094088093D908209A289856985E9880917C
S11341406F008F7D80936F00249A2C9A239A2B986A
S1134150219A299A89E894E09093AC038093AB0365
S11341601092E7038AE58093D20381E08093810073
S113417080E28093B60083E08093B1008091840054
S1134180909185004AE7209184003091850028179A
S1134190390708F44150442311F0C901F4CF909138
S11341A0B2008091B2008917E1F32091840030912C
S11341B085009091B2008091B2008917E1F380915B
S11341C0840090918500821B930B4096F5E09695B0
S11341D08795FA95E1F79093960880939508109245
S11341E0B1008091B100809381008091810080931F
S11341F0B6001092B20010928500109284008FEFE6
S113420087BB87B386BB8091B6008571E1F7559A69
S1134210579A5D9A5F9A109285001092840080915B
S11342206F00816080936F0080918100887F82603D
S113423080938100109295001092940080917100F7
S113424081608093710080919100887F8260809367
S113425091000E9463208823E1F78FEF809380040C
S113426080E00E94430B20915F03309160032F5F35
S11342703F4FC901AA27BB278093E3039093E4032C
S1134280A093E503B093E6038DEE93E09093A0032F
S113429080939F038F969093A2038093A1038BE452
S11342A094E09093A4038093A3038FEF9FEF9093E4
S11342B0AE068093AD069093B0068093AF069093BC
S11342C0B2068093B1069093B4068093B30690939C
S11342D0B6068093B50691E080915F0327EB36E044
S11342E08295807F8093E8038FEF8093D10390932E
S11342F06F0530937305209372051092AF031092EB
S1134300AE038091B60080628093B6008091B600BF
S113431081FDFCCF82E08093B0008091B60080FDE7
S1134320FCCF83E08093B1008091B60083FDFCCF85
S113433086EE8093B3008091700082608093700059
S11343400E94120412E006E06091950870919608AC
S113435088279927ECE0660F771F881F991FEA9535
S1134360D1F720E03BE440E050E00E9414242150C7
S113437030402093C400832F99278093C500109365
S1134380C0000093C2001092C1002093CC0080931F
S1134390CD001093C8000093CA001092C90088ECA5
S11343A090E09093AA068093A90610928504109237
S11343B0870410926C0510927E041092810410926E
S11343C098081092DB081092DA081092D208109222
S11343D000051092A4061092A3061092D90310921D
S11343E0710510928D081092DF031092FC04109254
S11343F0FB041092EE041092ED040E9463208823C3
S1134400E1F78F2D99278FBF789481E00E94850171
S11344108FB7F894482F552757C08091700099277B
S113442083709070892B19F4E5E0F0E014C080915A
S1134430B6008A71E1F78091B3009091B200891BB4
S11344408C3038F08091B200853F18F4E3E0F0E05E
S113445002C0E2E0F0E080916E00867009F5809180
S11344606F008672E9F4809171008672C9F40CB40D
S113447007FC16C08091C100887191F48091C90035
S1134480887171F48091BC0082FD0AC080917A0029
S113449087FF03C081E090E005C085E090E002C0A2
S11344A080E090E023B78E1708F4E82FFF27EA5442
S11344B0FD4FE491207F2160E22BE3BF789488953F
S11344C0F89483B78E7F83BF809194088F3F09F45B
S11344D0A4CF282F3327F901EE54FC4F8081809319
S11344E094088F3F11F48093D9088FEF80832F3F76
S11344F009F493CF4FBF822F0E94911A89CFACE267
S1134500B0E0E5E8F2E20C945524222E332E442E3A
S1134510552E662E772E882E992EFE013196A8E010
S11345201192AA95E9F729823A824B825C826D82C4
S11345307E828F829886FE013996B8E01192BA95F0
S1134540E9F7A986BA86CB86DC86ED86FE860F87D8
S1134550188B89819A81AB81BC8189A79AA7ABA763
S1134560BCA77C018D018FEF9FEFA0E0B0E0E822B3
S1134570F9220A231B2389A59AA5ABA5BCA51D0175
S11345804424552489859A85AB85BC858DA39EA337
S1134590AFA3B8A75C016D018FEF9FEFA0E0B0E07F
S11345A0A822B922CA22DB228DA19EA1AFA1B8A55F
S11345B03D0188249924C801B701A60195010E94F0
S11345C0362469A37AA38BA39CA3C801B701A401D1
S11345D093010E9436247B018C01C201B101A60122
S11345E095010E9436245B016C01C201B101A40152
S11345F093010E9436243B014C01EA0CFB1C0C1D68
S11346001D1D89A19AA1ABA1BCA19D0144275527D9
S11346102E0D3F1D401F511F2A153B054C055D05FE
S113462040F480E090E0A1E0B0E0680E791E8A1EBC
S11346309B1ECA01AA27BB27860D971DA81DB91D5D
S11346408D8F9E8FAF8FB8A3A9013327222789A10D
S11346509AA1ABA1BCA1A070B070280F391F4A1F4A
S11346605B1F298F3A8F4B8F5C8FA98CBA8CCB8CB4
S1134670DC8CED8CFE8C0F8D18A1FE01719698E0F8
S113468011929A95E9F7ED8AFE8A0F8B188F2D8186
S11346903E814F8158856DA17EA18FA198A50E946E
S11346A036243B014C012D853E854F85588969A5EB
S11346B07AA58BA59CA50E9436242D893E894F8915
S11346C0588D260F371F481F591F260D371D481DAB
S11346D0591D2D8B3E8B4F8B588F6D887E888F880C
S11346E0988C2A2D3B2D4C2D5D2D662D772D882DF4
S11346F0992DE2E1AC960C947124A0E1B0E0E3E8DA
S1134700F3E20C945524222E332E442E552E662E7D
S1134710772E882E992E002309F466C088E0FE01C6
S1134720319611928A95E9F729833A834B835C8306
S11347306D837E838F829887E0E2E01B1E16CCF5A2
S11347402D813E814F815885602F772767FD7095B5
S1134750DA01C901062E04C0B695A79597958795E9
S11347600A94D2F78D879E87AF87B88B04C0220F37
S1134770331F441F551FEA95D2F789819A81AB8173
S1134780BC8104C0B695A795979587956A95D2F78D
S1134790282B392B4A2B5B2B29873A874B875C873D
S11347A029843A844B845C846D847E848F849888C5
S11347B01BC01D861E861F86188A2E2F332727FDB1
S11347C03095309521953F4F8D819E81AF81B8857D
S11347D004C0B695A795979587952A95D2F78987AA
S11347E09A87AB87BC87DCCF222D332D442D552DE2
S11347F0662D772D882D992DE2E160960C94712415
S1134800AA1BBB1B51E107C0AA1FBB1FA617B707F2
S113481010F0A61BB70B881F991F5A95A9F780950E
S11348209095BC01CD010895A1E21A2EAA1BBB1BD1
S1134830FD010DC0AA1FBB1FEE1FFF1FA217B30768
S1134840E407F50720F0A21BB30BE40BF50B661F7E
S1134850771F881F991F1A9469F760957095809542
S113486090959B01AC01BD01CF010895629FD001D9
S1134870739FF001829FE00DF11D649FE00DF11D17
S1134880929FF00D839FF00D749FF00D659FF00DC6
S11348909927729FB00DE11DF91F639FB00DE11DB3
S11348A0F91FBD01CF01112408952F923F924F9219
S11348B05F926F927F928F929F92AF92BF92CF92AC
S11348C0DF92EF92FF920F931F93CF93DF93CDB7B5
S11348D0DEB7CA1BDB0B0FB6F894DEBF0FBECDBF2D
S11348E009942A88398848885F846E847D848C84FE
S11348F09B84AA84B984C884DF80EE80FD800C8107
S11349001B81AA81B981CE0FD11D0FB6F894DEBFE9
S11349100FBECDBFED010895FB01DC0102C0019083
S11349200D9241505040D8F70895DC0101C06D93B9
S113493041505040E0F70895A2E0B0E0E2EAF4E22A
S11349400C946524FE01379661917191FA83E98391
S1134950AF018091E5089091E6080E94E624E2E028
S113496022960C9481240F931F93CF93DF938C0191
S1134970E091E508F091E608838181FF1FC0C0E063
S1134980D0E00AC0FD0120853185BD01F9010995FA
S1134990892B11F0CFEFDFEFF80181918F01A09106
S11349A0E508B091E608882369F7FD012085318583
S11349B0BD018AE0F9010995892B11F0CFEFDFEFF2
S11349C0CE01DF91CF911F910F910895ABE0B0E03C
S11349D0ECEEF4E20C9457243C014B016A01FC0117
S11349E017821682838181FD03C08FEF9FEFDAC1A6
S11349F0F3013381F40133FD859133FF81914F013C
S1134A00882309F4CCC1853239F433FD859133FF11
S1134A1081914F01853229F4B30199270E94EC2634
S1134A20E7CF00E0442455244AE00032B0F48B324E
S1134A3069F08C3228F4803251F0833271F40BC067
S1134A408D3239F0803349F4016028C0026004607B
S1134A5025C0086023C0006121C007FD29C0282F9C
S1134A6020532A3078F406FF06C0549EC001112456
S1134A70522E580E13C0449EC0011124422E480EDB
S1134A8000620CC08E3221F406FD89C1006406C0A8
S1134A908C3611F4006802C0883651F4F40133FDF9
S1134AA0859133FF81914F01882309F46FC0BDCFF5
S1134AB0982F8554833018F08052833038F424E0E2
S1134AC030E0C20ED31E8FE389830FC0933631F0DA
S1134AD0933799F0933509F05BC023C0F6018081C8
S1134AE0898322E030E0C20ED31E7E010894E11CCB
S1134AF0F11C51E0A52EB12C12C0F601E080F1802A
S1134B0006FD03C06FEF7FEF02C0652D772722E01B
S1134B1030E0C20ED31EC7010E94E1265C010F776C
S1134B2013C0F601E080F18006FD03C06FEF7FEF54
S1134B3002C0652D772722E030E0C20ED31EC701E4
S1134B400E94D6265C01006803FF07C01BC0B301A6
S1134B5080E290E00E94EC264A94842D9927A816BE
S1134B60B906A8F30FC0F70107FD859107FF8191EE
S1134B707F01B30199270E94EC2641104A940894BE
S1134B80A108B108A114B10471F706C190E03EC0B8
S1134B90943611F0993691F507FF0AC0F601608149
S1134BA071818281938124E030E0C20ED31E0DC056
S1134BB0F601808191819C01B901882777FD809558
S1134BC0982F42E050E0C40ED51E4FE6B42EB0221A
S1134BD097FF09C090958095709561957F4F8F4F91
S1134BE09F4F50E8B52A8E010F5F1F4F2AE030E037
S1134BF0A8010E941927A82EA01A4DC0953731F498
S1134C003FEEF32EF0222AE030E023C029EFF22E0B
S1134C10F0229F3661F0903720F4983509F0BFC038
S1134C2012C0903739F0983709F0B9C005C028E0B0
S1134C3030E00FC080E1F82AF4FE02C094E0F92AC3
S1134C4020E130E006C0F4FE02C0E6E0FE2A20E1E6
S1134C5032E0F7FE0AC0F60160817181828193819E
S1134C6044E050E0C40ED51E0BC0F6018081918152
S1134C70AC01BA0188279927E2E0F0E0CE0EDF1EEE
S1134C808E010F5F1F4FA8010E941927A82EA01A9A
S1134C908FE7B82EBF20B6FE10C0FEEFBF22A514CA
S1134CA060F42B2D332724FF1AC022FF02C0052DE8
S1134CB009C02FEEB222052D01C00A2D2B2D33275A
S1134CC024FF0EC0FE01EA0DF11D8081803319F42A
S1134CD039EEB32209C00F5F22FF06C004C0052DC0
S1134CE0822F867809F00F5FEB2CFF24E3FC14C0BD
S1134CF0E0FE0FC0041510F05A2C0BC0542C501AAF
S1134D005A0C042D06C0B30180E290E00E94EC2608
S1134D100F5F0415C0F304C0041510F4401A01C059
S1134D204424E4FE10C0B30180E390E00E94EC262A
S1134D30E2FE1EC0E1FE03C088E590E002C088E701
S1134D4090E0B3010CC08E2D867891F0E1FE02C094
S1134D508BE201C080E2B7FC8DE2B30199270E9487
S1134D60EC2606C0B30180E390E00E94EC265A943E
S1134D70A514C0F3AA94FE01EA0DF11D8181B301CB
S1134D8099270E94EC26AA2039F0F4CFB30180E2DF
S1134D9090E00E94EC264A944420C1F729CEF30106
S1134DA086819781E0E12B960C947324FC01059095
S1134DB0615070400110D8F7809590958E0F9F1F19
S1134DC00895FC016150704001900110D8F780955E
S1134DD090958E0F9F1F08950F931F93CF93DF938A
S1134DE08C01EB018B81992781FF1BC082FF0DC0D1
S1134DF02E813F818C819D812817390764F4E881D5
S1134E00F9810193F983E88306C0E885F985802F49
S1134E100995892B31F48E819F8101969F838E831E
S1134E2002C00FEF1FEFC801DF91CF911F910F91C7
S1134E300895FA01AA27283051F1203181F1E8942C
S1134E406F936E7F6E5F7F4F8F4F9F4FAF4FB1E079
S1134E503ED0B4E03CD0670F781F891F9A1FA11D74
S1134E60680F791F8A1F911DA11D6A0F711D811D75
S1134E70911DA11D20D009F468943F912AE0269F3A
S1134E8011243019305D3193DEF6CF010895462F99
S1134E904770405D4193B3E00FD0C9F7F6CF462F7A
S1134EA04F70405D4A3318F0495D31FD40524193E3
S1134EB002D0A9F7EACFB4E0A695979587957795A0
S1134EC06795BA95C9F700976105710508959B0127
S1134ED0AC010A2E06945795479537952795BA95B0
S1134EE0C9F7620F731F841F951FA01D0895FFCF7C
S1134EF073656E642073746174652025640A0061AF
S1134F007373657274002F6F70742F74696E796F88
S1134F10732D322E312E312F746F732F63686970A5
S1134F20732F72663278782F6C61796572732F4DA6
S1134F306573736167654275666665724C61796510
S1134F4072502E6E63002F6F70742F74696E796FB8
S1134F50732D322E312E312F746F732F6368697065
S1134F60732F72663278782F6C61796572732F5261
S1134F70616E646F6D436F6C6C6973696F6E4C61C5
S1134F80796572502E6E63002F6F70742F74696E82
S1134F90796F732D322E312E312F746F732F636816
S1134FA06970732F72663278782F7574696C2F521A
S1134FB06164696F416C61726D502E6E63002F6F76
S1134FC070742F74696E796F732D322E312E312FD8
S1134FD0746F732F63686970732F72663278782FD9
S1134FE06C61796572732F4D657461646174614697
S1134FF06C6167734C61796572432E6E63002F6F29
S113500070742F74696E796F732D322E312E312F97
S1135010746F732F63686970732F72663278782F98
S113502072663233302F52463233304472697665B9
S1135030724C61796572502E6E6300636F756E7485
S113504065723A2025640A0073656E642073756383
S113505063657373210073656E64206661696C65B2
S113506064212025640A0073656E6420646F6E6594
S11350702100617373657274207572002F6F7074F0
S11350802F74696E796F732D322E312E312F746F18
S1135090732F63686970732F72663278782F6C612E
S11350A0796572732F536F66747761726541636BB0
S11350B04C61796572502E6E63002F6F70742F747B
S11350C0696E796F732D322E312E312F746F732FD9
S11350D063686970732F72663278782F7574696C9F
S11350E02F5461736B6C6574432E6E630073706C24
S11350F06974636F6E74726F6C207374617465206D
S113510025640A00626F6F746564212072616469AA
S11351106F20657272636F64652025640A004469B8
S113512061674D73674F766572666C6F7700616D6A
S1135130636F6E74726F6C3A2025640A006D657338
S11351407361676520726563656976656421000132
S113515000FF0A0539050A0501010022FFFFFFFFD0
S1135160FFFF010000000200000000FE0A00000032
S1055170000039
S9030000FC
