S01700006275696C642F696E67612F6D61696E2E737265635B
S11300000C9449010C940B080C9415080C941F08CB
S11300100C9468010C9468010C9468010C946801B8
S11300200C9468010C9464070C9468010C944D08BA
S11300300C9468010C9468010C9468010C94680198
S11300400C9468010C9468010C9468010C94680188
S11300500C945F050C9468010C94E2050C946801FF
S11300600C9468010C9468010C94B1080C94680118
S11300700C94FE060C9468010C9410070C94310740
S11300800C941B070C9426070C94440700002110C1
S1130090422063308440A550C660E77008812991EE
S11300A04AA16BB18CC1ADD1CEE1EFF13112100296
S11300B073325222B5529442F772D662399318833E
S11300C07BB35AA3BDD39CC3FFF3DEE36224433462
S11300D020040114E664C774A44485546AA54BB58E
S11300E028850995EEE5CFF5ACC58DD55336722636
S11300F011163006D776F6669556B4465BB77AA7DE
S113010019973887DFF7FEE79DD7BCC7C448E55881
S11301108668A7784008611802282338CCC9EDD92D
S11301208EE9AFF9488969990AA92BB9F55AD44AD5
S1130130B77A966A711A500A333A122AFDDBDCCB7D
S1130140BFFB9EEB799B588B3BBB1AABA66C877CA1
S1130150E44CC55C222C033C600C411CAEED8FFDCD
S1130160ECCDCDDD2AAD0BBD688D499D977EB66E75
S1130170D55EF44E133E322E511E700E9FFFBEEF1D
S1130180DDDFFCCF1BBF3AAF599F788F8891A981DF
S1130190CAB1EBA10CD12DC14EF16FE18010A100C9
S11301A0C230E3200450254046706760B9839893B9
S11301B0FBA3DAB33DC31CD37FE35EF3B102901219
S11301C0F322D2323542145277625672EAB5CBA585
S11301D0A89589856EF54FE52CD50DC5E234C32469
S11301E0A01481046674476424540544DBA7FAB759
S11301F09987B8975FE77EF71DC73CD7D326F236B9
S11302009106B01657667676154634564CD96DC9A4
S11302100EF92FE9C899E9898AB9ABA94458654808
S113022006782768C018E1088238A3287DCB5CDBF8
S11302303FEB1EFBF98BD89BBBAB9ABB754A545A58
S1130240376A167AF10AD01AB32A923A2EFD0FEDC4
S11302506CDD4DCDAABD8BADE89DC98D267C076CA8
S1130260645C454CA23C832CE01CC10C1FEF3EFF98
S11302705DCF7CDF9BAFBABFD98FF89F176E367EF8
S1130280554E745E932EB23ED10EF01E00020E0641
S11302900C0411241FBECFEFD0E4DEBFCDBF11E0AC
S11302A0A0E0B1E0ECE1F7E200E00BBF02C0079090
S11302B00D92A034B107D9F713E0A0E4B1E001C076
S11302C01D92AD36B107E1F70E94F80E0C948D1320
S11302D00C9400008FB7F894992708958FBF089560
S11302E0282F9FB7F894E82FFF27E159FE4F80810C
S11302F08F3F81F4E0916103E21771F40BC0209306
S1130300250304C0FF27E159FE4F20832093610396
S113031020E007C025E005C0809125038F3F91F7B9
S1130320EECF892F99278FBF822F992708951F9386
S11303301FB7F89480916003882339F40E947001F8
S1130340882319F481E080936003812F99278FBF5C
S11303501F910895382FFA01422F2D3118F082E0B1
S113036090E008956683872F9927858333872187B3
S11303708091450190914601892B19F085E090E028
S113038008952FB7F894332785E08093480110929D
S11303904901F0934401E093430182E090E090939B
S11303A046018093450110924B0110924A01445F2B
S11303B0409347012FBF9FB7F894809192018823FF
S11303C011F020E006C081E0809392011092930125
S11303D021E0892F99278FBF222329F00E949701BA
S11303E080E090E00895109246011092450181E06A
S11303F090E00895CF93DF93DB01FB013596818371
S1130400892F9927EB018D8384E6868380919C0153
S113041090919D01892B19F085E090E029C070939B
S11304209D0160939C01448380912C01882319F4DD
S113043080E090E01DC08681EB016D817727762FE7
S1130440662721813327622B732B10922C01242FD2
S1130450AD010E94AA019927282F882339F081E051
S113046080932C0110929D0110929C01822F992758
S1130470DF91CF9108952FB7F894EA9894E09CBB4C
S113048090916900906290936900882321F0809193
S11304906900806103C0809169008F7E8093690048
S11304A0EA9A822F99278FBF80E090E008958FB752
S11304B0F89499272091BC00209315028FBF0895CA
S11304C07FB7F8946091B20020918101309182014C
S11304D04091830150918401B99B11C08091B30074
S11304E09091B200280F311D411D511D2F5F3F4FC8
S11304F04F4F5F4F290F311D411D511D04C0260F61
S1130500311D411D511D872F99278FBFCA01B90184
S11305100895DF92EF92FF920F931F938FB7F89491
S1130520282F3327D22E9091B3008091B20047B385
S1130530981711F041FF02C02FBF71C080912803AA
S11305408823E1F10E946002E0902B03F0902C03D9
S113055000912D0310912E032091620130916301CB
S113056040916401509165016E197F09800B910BD4
S1130570621773078407950720F01092280371E02F
S11305801EC02E0D3F1D401F511F8091810190916F
S11305908201A0918301B0918401281B390B4A0B7D
S11305A05B0B273E31054105510540F4822F223073
S11305B010F070E005C070E082E002C070E086EEEA
S11305C0682F61508091B60083FDFCCF8091B2000A
S11305D0681709F46F5F2091810130918201409185
S11305E0830150918401DA01C9010196A11DB11D55
S11305F0860F911DA11DB11D82179307A407B5078E
S113060010F4622F60958091B60083FDFCCF609357
S1130610B300DFBE772319F089E00E9470011F91B7
S11306200F91FF90EF90DF900895AFB7F894BB2738
S1130630E1E0E093280360932B0370932C038093F1
S11306402D0390932E032093620130936301409312
S1130650640150936501AFBF0E9489020895E1ECE3
S1130660F0E080818F7B808380818F7780831092FC
S11306701602109288018081886080838081806165
S1130680808380818068808380E090E008959FB7B4
S1130690F894809117028A3011F020E006C020E01F
S11306A080918501843009F421E0892F99278FBF37
S11306B0222349F082E00E9470018FB7F8949927B1
S11306C01092400106C08FB7F894992721E0209337
S11306D040018FBF08952FB7F89433278093C60045
S11306E0E0ECF0E08081806480832FBF0895FC01FA
S11306F06115710519F481E090E0089580918E01EF
S113070090918F01892B19F085E090E00895709302
S11307101E0360931D03F0938F01E0938E011092EA
S113072087011092860181E0809388018091C00046
S113073080648093C0008091C10080648093C10074
S1130740808121E030E030938701209386010E946C
S11307506B0380E090E00895809151018E7F809337
S113076051018EE780937C0161E070E08CE791E0B9
S11307700E94770399270895ECE8F0E06927660F53
S1130780F11DE60FF11DC895982F802D3196C8955F
S113079090250895982F80914C01882389F59923F9
S11307A079F531E030934C018091250180934D011E
S11307B020914101822F817080936E0180912A01E2
S11307C090912B0190934F0180934E0180914201AF
S11307D08093500132273170267EE32FFF27EE0FDE
S11307E0FF1FEA5DFE4F8081918190932B018093DE
S11307F02A01232B2093410185E00E947001089572
S11308008091410180FF02C08B7F01C08D7F809366
S1130810410108950F931F93082F162F809185018E
S11308208130D9F0813038F0823009F44AC0833005
S113083009F00EC159C0002309F43EC110921703F8
S1130840109216031092190210922003109289013B
S11308501092A1011092A0011FC1002309F02CC124
S11308608091A0019091A1010E94BC039093A101E9
S11308708093A00182E080938501109320031434B7
S113088009F0E6C00BC18695869503C080914101AD
S11308908695817009F0DCC080914101992311F0A3
S11308A0846001C082608093410180914101877E10
S11308B0886080934101109242018FEF809325015B
S11308C0FBC0002309F0C4C0609389018091A0019A
S11308D09091A1010E94BC039093A1018093A00177
S11308E083E080938501E8C0809119028F3F09F469
S11308F0AFC0002309F447C0823008F4A9C0E091D6
S11309001603EE2309F4D1C04E2F4150E42FFF27E4
S1130910EA5EFC4F82819927382F2227442311F461
S1130920E2E002C0E42FE150FF27EA5EFC4F82813F
S11309309927282B392B8091A0019091A101281788
S1130940390709F085C080E00E94CA03309189010B
S11309508091940120919501982F9F5F963008F023
S113096090E0921709F474C0E82FFF27EC56FE4F6D
S113097032838F5F80939401863010F0109294013B
S11309800E94970165C0823008F44EC0E0911703BD
S1130990FF27EA5EFC4F8281482F5527342F209190
S11309A04101822F8695869586958370992781309B
S11309B0910519F00297F9F40EC0277E2061209367
S11309C04101442311F485E001C080E08093420199
S11309D03093250110C0809142018F3260F4E09180
S11309E02A01F0912B01E80FF11D4083809142010F
S11309F08F5F8093420180911703E82FFF27EA5EFF
S1130A00FC4F62818F5F80931703833010F0109244
S1130A10170377278091A0019091A1010E94BC0344
S1130A209093A1018093A00180911603E82FFF27E2
S1130A30EA5EFC4F12838F5F80931603833010F0BD
S1130A4010921603809119028F5F8093190234C0AB
S1130A501092170310921603109285011092190236
S1130A6010922003109289011092A1011092A0010A
S1130A70809151018D7F8093510181E00E94CA03CE
S1130A8080914001882331F084E0809385010E94A5
S1130A90470312C0002381F081E023CF80914101FC
S1130AA0982F917080FDEFCEF1CE80911A03992793
S1130AB0382F222742E036CF1F910F9108951F92BD
S1130AC00F920FB60F9211242F933F934F935F937E
S1130AD06F937F938F939F93AF93BF93EF93FF9302
S1130AE08091C00087FF42C06091C600E091A201DE
S1130AF0F091A301309719F180915E0390915F0307
S1130B00E80FF91F6083019690935F0380935E035F
S1130B1020916503309166038217930738F1109290
S1130B20A3011092A201809116028330F9F0809102
S1130B30C1008F778093C1001092160217C06E37E0
S1130B4019F460E081E010C0809151016D3721F407
S1130B508260809351010AC081FF05C08D7F80931C
S1130B60510180E2682780E00E940A04FF91EF911E
S1130B70BF91AF919F918F917F916F915F914F91B1
S1130B803F912F910F900FBE0F901F901895982FA3
S1130B908D57823068F480915101816080935101B6
S1130BA080E28927809318028DE780937C0102C03C
S1130BB090937C0161E070E08CE791E00E94770300
S1130BC09927089578941F920F920FB60F921124CB
S1130BD0FF920F931F932F933F934F935F936F93C2
S1130BE07F938F939F93AF93BF93CF93DF93EF93B1
S1130BF0FF93209186013091870180911D0390918C
S1130C001E032817390780F4E0918E01F0918F01BB
S1130C10E20FF31F80812F5F3F4F309387012093B2
S1130C2086010E946B03D4C010928F0110928E0132
S1130C30109288018091C1008F7B8093C1008091C4
S1130C40510180FF0EC08E7F809351018091180264
S1130C5080937C0161E070E08CE791E00E9477036F
S1130C60B7C080911702843009F494C0853040F4F1
S1130C70823021F18330B8F5813009F0A4C00DC071
S1130C80863009F495C0863008F48BC0873009F4A7
S1130C9096C0883009F097C099C080918D010E9458
S1130CA0C705182F83E08093170260918D0180910E
S1130CB06303909164030E94BC0310C080912903D4
S1130CC00E94C705182F83E08093170260912903BF
S1130CD080916303909164030E94BC039093640326
S1130CE0809363036EC0FFB6F894E091A401FF27DC
S1130CF0EE0FFF1FEF56FE4F80810E94C705082F9D
S1130D001091A401C12FDD27FE01EE0FFF1FEF5646
S1130D10FE4F608180916303909164030E94BC0341
S1130D20909364038093630320918C012F5F20933D
S1130D308C01113039F580914801E0914301F09123
S1130D404401E80FF11DE0818F5F80934801909189
S1130D504701981730F482E08093920140E050E01C
S1130D6002C04E2F5527DE01AA0FBB1FFD01E0571D
S1130D70FE4F8081823031F02F3F21F0AF56BE4FBD
S1130D804C9303C084E080931702102F8F2D992772
S1130D908FBF17C0809163030E94C705182F85E099
S1130DA00BC0809164030E94C705182F86E004C01D
S1130DB00E94AC03182F87E08093170202C088E0DA
S1130DC003C0112329F089E0809317020E94970140
S1130DD0FF91EF91DF91CF91BF91AF919F918F914F
S1130DE07F916F915F914F913F912F911F910F913F
S1130DF0FF900F900FBE0F901F9018951F920F92A7
S1130E000FB60F9211248F938091C80087FF02C000
S1130E108091CE008F910F900FBE0F901F90189568
S1130E2078941F920F920FB60F9211240F900FBE59
S1130E300F901F90189578941F920F920FB60F92EF
S1130E4011240F900FBE0F901F90189578941F9245
S1130E500F920FB60F9211240F900FBE0F901F9098
S1130E60189578941F920F920FB60F9211248F93B6
S1130E709F9380919600909197009F918F910F90EE
S1130E800FBE0F901F90189578941F920F920FB673
S1130E900F9211242F933F938F939F932FB7F8941E
S1130EA0332780919E0190919F01019690939F0119
S1130EB080939E012FBF9F918F913F912F910F900F
S1130EC00FBE0F901F9018951F920F920FB60F929E
S1130ED011242F933F934F935F936F937F938F933B
S1130EE09F93AF93BF93EF93FF938091B000809350
S1130EF0B0008091B60081FDFCCF8091B3009927AA
S1130F000196AA27BB27209181013091820140914B
S1130F10830150918401280F391F4A1F5B1F2093BE
S1130F20810130938201409383015093840178942A
S1130F300E948902FF91EF91BF91AF919F918F9190
S1130F407F916F915F914F913F912F910F900FBEC1
S1130F500F901F9018950E945702809115028E7F62
S1130F608069809315028093BC0008950F931F93AA
S1130F70082F142F90915701913001F582E080934E
S1130F80570170938B0160938A0130937F01209302
S1130F907E01409359010093620310921F039093C2
S1130FA058010E9457029091150291689F7B90937B
S1130FB01502202F332720FD09C00DC0992319F4F1
S1130FC084E090E025C085E090E022C09062909398
S1130FD0150285E00AC0123020F4112359F022FFD3
S1130FE007C090649093150284E0809357010AC06F
S1130FF01130D1F321FF06C086E080935701906140
S113100090931502809115028093BC0080E090E0DB
S11310101F910F9108951F920F920FB60F921124F2
S11310200F900FBE0F901F9018951F920F920FB63E
S11310300F9211240F900FBE0F901F9018951F92BE
S11310400F920FB60F9211242F933F934F935F93F8
S11310506F937F938F939F93AF93BF93EF93FF937C
S1131060EA9890E080911A02882309F491E0909321
S11310701A028CE00E947001FF91EF91BF91AF9131
S11310809F918F917F916F915F914F913F912F919C
S11310900F900FBE0F901F9018951F920F920FB6CE
S11310A00F9211248F938091B0008093B0008091AF
S11310B0B60081FDFCCF8F910F900FBE0F901F9053
S11310C01895982F80915601833009F047C080917C
S11310D02F01891709F042C080912D0120E030E0F2
S11310E08F3F11F421E030E0232BF9F48F3F19F402
S11310F02FEF30E00EC0282F3327F901E058FE4FC0
S1131100808180932D018F3F11F480932E018FEF06
S1131110808320931B028FEF80932F0181E08093C3
S113112056018BE00E94700116C081E080932F016C
S11311301092560180915701813069F40E94570240
S1131140809115028A77809315028093BC004098A1
S113115041981092570180E090E0089581E090E07A
S113116008951F920F920FB60F9211242F933F935D
S11311704F935F936F937F938F939F93AF93BF939B
S1131180EF93FF930E94570280915701873071F4C7
S113119080915801813009F0FBC084E080935701AD
S11311A080911502806C80931502F0C0843009F0A0
S11311B08BC08091580190911F0330915901813067
S11311C009F050C09317F0F4E0917E01F0917F0193
S11311D0E90FF11D8091BB00808340911F03242FF0
S11311E03327809159019927019728173907B1F5B9
S11311F08091620382FD32C0809115028F7B8093BF
S113120015022CC090911502292F2E7F20931502D0
S11312108091620381FF09C08D7F80936203206106
S1131220209315028091B90003C09E779093150214
S1131230809115028093BC0081E0809357018091D6
S11312403001882309F0A4C0A6E6B1E0EAE5F1E0A4
S113125088E001900D928150E1F76AC04F5F40939E
S11312601F0392C020911502931778F4E0917E0138
S1131270F0917F01E90FF11D80818093BB009F5F96
S113128090931F032093BC0083C0922F9E7F909362
S113129015028091620381FF07C08D7F80936203F2
S11312A090619093150203C02E77209315028091CC
S11312B015028093BC0081E0809357018091300136
S11312C0882309F065C03CC0853009F049C080918D
S11312D062038E7F80936203909115029F7D9093A9
S11312E015028091B900887F883099F18091B90006
S11312F0887F803171F10E945702809115028A7FA4
S1131300809315028093BC000E94570280911502BD
S11313108460809315028093BC0081E08093570120
S11313208091580190913001882341F0992381F5EF
S11313300E94AB0780E00E9461082AC0992341F50E
S11313402AE531E048E060E570E083E00E94B607FA
S11313501FC083E08093570190649093150202C0EC
S11313608330B1F48091580190918A01813031F435
S1131370990F91609093BB0087E004C0990F9093FC
S1131380BB0084E080935701809115028093BC00D8
S1131390FF91EF91BF91AF919F918F917F916F9149
S11313A05F914F913F912F910F900FBE0F901F901F
S11313B01895809154018C3118F04CE150E002C032
S11313C0482F55278CE1EBE3F3E011928A95E9F776
S11313D0909154018091520120E030E0ABE3B3E0FE
S11313E00FC0E82FFF27E45EFD4FE081992329F029
S11313F08F5F8A3F09F480E09150ED932F5F3F4F58
S11314002417350771F790935401809352014CE1EE
S11314106FE273E08FEF9FEF0E94FA01882319F0C7
S113142088E00E94700108951F93182F8091550140
S1131430813049F4809154018D3728F082E0809303
S113144055010E94D9098FB7F894282F332790911A
S113145054019A3FA8F480915301E82FFF27E45EDA
S1131460FD4F10838F5F809353018A3F11F41092D4
S113147053019F5F909354012FBF80E090E003C01D
S11314802FBF8FEF9FEF1F910895662359F480912A
S11314905401882319F00E94D909089581E08093AA
S11314A05501089588E00E9470010895EF92FF921B
S11314B00F931F93CF93DF93182F7B01042FE82FF3
S11314C0FF27EE0FFF1FE456FE4F11821082109289
S11314D02C01A0919C01B0919D01109721F0809165
S11314E02A0380FF0EC081E080932C0103C087E0B3
S11314F00E9470011123C9F4602FC7010E94450A9C
S113150014C0FD01359624813327ED016D817727C1
S1131510762F662781819927682B792BAD018681E7
S11315200E94AA01882331F3E2CFDF91CF911F916A
S11315300F91FF90EF9008958FB7F894282F3327D9
S113154080915501823021F42FBF80E090E008950E
S113155090E080915401882309F491E0992321F0CB
S11315602FBF81E090E0089582E0809355012FBF62
S11315700E94D90980E090E00895AF92BF92CF9283
S1131580DF92EF92FF920F931F935B016C016091C6
S1131590AD0161FF1FC02091A5013091A6014091CA
S11315A0A7015091A801E090A901F090AA0100912F
S11315B0AB011091AC01D601C501821B930BA40BA6
S11315C0B50B8E159F05A007B10720F0E5EAF1E001
S11315D090E021C0EEEAF1E06091B60161FF53C0F2
S11315E02091AE013091AF014091B0015091B10111
S11315F0E090B201F090B3010091B4011091B501F3
S1131600A21AB30AC40AD50AAE14BF04C006D1068E
S113161008F439C091E060FF04C080858D7F808725
S113162008C02E0D3F1D401F511F2083318342836C
S11316305383992319F0913031F51EC090E01A9923
S113164091E081E09827892F99279F938F9380E0D9
S113165091E09F938F930E94AE100E949C0A2FB733
S1131660F89433278BB190E289278BB92FBF0F9061
S11316700F900F900F9007C02FB7F89433278BB1BA
S113168080588BB92FBF8AE00E9470011F910F917F
S1131690FF90EF90DF90CF90BF90AF900895AF92FE
S11316A0BF92CF92DF92EF92FF920F931F93182F66
S11316B0863051F1873090F4823009F4A5C183302B
S11316C030F4882349F1813009F06CC3FDC08430C3
S11316D009F4ACC1853008F0CEC198C1893009F451
S11316E02BC28A3038F4873009F40AC2883009F0F2
S11316F059C314C28B3009F4D5C28B3008F44FC2DD
S11317008C3009F04FC326C380912A03882309F43F
S113171049C390E011E0D1C18FB7F89410926003EF
S11317202091170240E0283009F441E030E02930EC
S113173009F431E0442311F4332351F010921702D9
S1131740E091A401FF27EE0FFF1FE057FE4F108228
S113175099278FBF442311F4332319F1809129036E
S11317608F5F8093290380918D018334A1F49FB707
S1131770F8942091950180919401821741F0822F71
S11317808F5F80939501863010F010929501892F18
S113179099278FBF0AC0A0E0442309F4A1E071E0B7
S11317A006C0222311F010E069C0A0E070E08FB7FA
S11317B0F8949927209140018FBF222341F08FB7DD
S11317C0F89499272AE0209317028FBF43C08FB75C
S11317D0F894992760919001409192018FBF8FB73F
S11317E0F894282F332750E090919401809195012B
S11317F0981709F451E02FBF552349F5662339F5AD
S11318005FB7F89482E0809390018FB7F894282F03
S1131810332740E09091940180919501981709F441
S113182041E02FBF442311F080E006C0E091950110
S1131830FF27EC56FE4F828180939101852F9927D3
S11318408FBF83E480938D011092A4010BC041509B
S1131850423010F010E007C085E480938D0181E0F0
S11318608093A40111E0772349F08FB7F894992766
S1131870A09349018FBF84E00E94700180911702F8
S11318808A3019F40E9447038DC2112309F48AC2D5
S11318902FB7F894332710926403109263031092C5
S11318A08C0181E0809317022FBF0E94AC03882330
S11318B009F478C28FB7F894992729E02093170286
S11318C08FBF0E9497016EC20E942F038091550121
S11318D0882309F067C281E391E090936A038093BF
S11318E069038FB7F8949927109355018FBF8FB769
S11318F0F894282F3327922F80915601882309F0DA
S113190043C01093560110921B022FBF8FB7F89457
S1131910E82EFF24809157018823C9F4409A419A04
S1131920389839981092B90081E48093B8001092E5
S1131930BA001092BC000E94570280911502846084
S11319408E7F809315028093BC0010935701EFBEE5
S11319508FB7F894082F1127902F80912F01813091
S113196029F580915601813021F48BE00E947001A9
S113197009C08230D9F480911B0280932F0183E047
S1131980809356010FBF13C0809180018F3F71F483
S1131990E0912E01EE2351F0FFC110922D0104C0FD
S11319A0FF27E058FE4F108210922E019FBF0E9425
S11319B060026093A5017093A6018093A7019093A0
S11319C0A80184E690E0A0E0B0E08093A9019093A0
S11319D0AA01A093AB01B093AC018091AD018E7FBD
S11319E082608093AD018AE00E94700122981A9B64
S11319F005C081E080931A0280E003C010921A02AD
S1131A0081E00E943B02CEC183E093C08091C1007B
S1131A10877F8093C1008091C1008F7E8093C10035
S1131A208FB7F89499271092550145C0109246013A
S1131A30109245018FB7F8949927409149018FBFBF
S1131A4080914A01811143E0209143013091440186
S1131A5080914B01882309F0A5C180912C01882332
S1131A6009F0A0C160919C0170919D0162177307F8
S1131A7009F098C150C08FB7F894992720914E016E
S1131A8030914F0140916E018FBF8FB7F894E42FCE
S1131A90FF27EE0FFF1FEA5DFE4F31832083209165
S1131AA04101442311F02B7F01C02D7F209341017C
S1131AB010924C0199278FBF75C120912A03822F60
S1131AC08123C1F0E92FFF27EE0FFF1FE456FE4FDD
S1131AD04081518111821082812F80952823209387
S1131AE02A03992339F463E0CA010E94450A110FBD
S1131AF091E0E3CF9F5F983008F054C1110FDDCF20
S1131B0080912C01E82FFF27EE0FFF1FE456FE4FB4
S1131B106081718141E00E94560A44C14CE16FE248
S1131B2073E08FEF9FEF0E94FA01882309F43AC112
S1131B3088E00E94700136C180917D01882361F59F
S1131B4020912103309122034091230350912403D7
S1131B50EFB7F894FF2760912B0370912C038091C9
S1131B602D0390912E03E0906201F09063010091A7
S1131B706401109165016E0D7F1D801F911FEFBFE1
S1131B80209321033093220340932303509324038F
S1131B9010927D010E9415030E9460026EC00E9493
S1131BA060025B016C018FB7F894992710922803A7
S1131BB08FBF8091AD0181FF25C08091A5019091D7
S1131BC0A601A091A701B091A801A6019501281B27
S1131BD0390B4A0B5B0BE090A901F090AA0100912C
S1131BE0AB011091AC01E21AF30A040B150B3FEFA1
S1131BF0E3163FEFF3063FEF03073FE7130711F048
S1131C0061E009C02FEFE22E2FEFF22E2FEF022F0B
S1131C102FE7122F60E08091B60181FF24C08091EC
S1131C20AE019091AF01A091B001B091B101A601B4
S1131C309501281B390B4A0B5B0BDA01C901209172
S1131C40B2013091B3014091B4015091B501281B08
S1131C50390B4A0B5B0B2E153F05400751071CF44B
S1131C6079018A0103C0662309F49CC01E141F0471
S1131C70100611062CF0C601B5010E94BD0A92C0DF
S1131C80E0922103F0922203009323031093240390
S1131C9081E080937D01A8019701C601B5010E94EE
S1131CA0150380C02FB7F894332780911B028093CB
S1131CB02F0183E0809356012FBF20912F018FB70E
S1131CC0F8949927209330018FBF222309F06AC02A
S1131CD084E080935A018FB7F894282F332780919A
S1131CE03001882309F034C02FBF8FB7F894282F10
S1131CF0332740915701413059F582E080935701D1
S1131D002FBF2FB7F894332780E590E090938B0191
S1131D1080938A018AE591E090937F0180937E010C
S1131D20409359014093620310921F03109258018B
S1131D302FBF0E9457022FB7F894332780911502C2
S1131D40816E8093150295E0909357018093BC00B7
S1131D502FBF28C080911A0221E131E0882351F07D
S1131D601F921F923F932F930E94AE100E949C0AD1
S1131D7080E00BC081E090E09F938F933F932F937B
S1131D800E94AE100E949C0A81E00E943B020F90C8
S1131D900F900F900F9006C080912D018F3F09F096
S1131DA0FFCDFBCD1F910F91FF90EF90DF90CF906F
S1131DB0BF90AF900895809125038F3FB1F0282FF5
S1131DC03327F901E159FE4F8081809325038F3F2A
S1131DD011F4809361038FEF80832F3F31F0822FC2
S1131DE00E944F0B81E090E0089580E090E0089518
S1131DF0FF920F931F93FFB6F89414BE88E10FB6B9
S1131E00F89480936000109260000FBE4DE050E0A3
S1131E106FEF70E08FE691E00E94A7108FEF809340
S1131E2025038093610381E08093810080E28093A5
S1131E30B60083E08093B100809184009091850086
S1131E404AE720918400309185002817390708F467
S1131E504150442311F0C901F4CF9091B200809114
S1131E60B2008917E1F320918400309185009091AC
S1131E70B2008091B2008917E1F3809184009091BF
S1131E808500821B930B4096F5E096958795FA950D
S1131E90E1F790932703809326031092B100809179
S1131EA0B10080938100809181008093B6001092EC
S1131EB0B20010928500109284008FEF87BB87B325
S1131EC086BB8091B6008571E1F7559A579A5D9A61
S1131ED05F9A109295001092940080917100816035
S1131EE08093710080919100887F8260809391003B
S1131EF00E94DB0E8823E1F78FEF8093800188E056
S1131F00E6E6F1E011928A95E9F78091B6008062E5
S1131F108093B6008091B60081FDFCCF82E080936F
S1131F20B0008091B60080FDFCCF83E08093B100C7
S1131F308091B60083FDFCCF86EE8093B300809140
S1131F4070008260809370000E9489020E942F03B7
S1131F5012E006E0609126037091270388279927F1
S1131F60ECE0660F771F881F991FEA95D1F720E0F0
S1131F703BE440E050E00E94851021503040209323
S1131F80C400832F99278093C5001093C000009349
S1131F90C2001092C1002093CC008093CD00109316
S1131FA0C8000093CA001092C90088EC90E0909396
S1131FB01C0380931B0310929001109292011092C3
S1131FC0170210928C0110928D0110922903109225
S1131FD0640310926303109260031092A4011092A0
S1131FE01703109216031092850110921902109291
S1131FF02003109289011092A1011092A001109265
S11320009501109294010E94DB0E8823E1F78F2D35
S113201099278FBF789481E00E9470018FB7F8945C
S1132020482F552757C0809170009927837090706E
S1132030892B19F4E5E0F0E014C08091B6008A71B0
S1132040E1F78091B3009091B200891B8C3038F095
S11320508091B200853F18F4E3E0F0E002C0E2E0D2
S1132060F0E080916E00867009F580916F008672B1
S1132070E9F4809171008672C9F40CB407FC16C0AF
S11320808091C100887191F48091C900887171F4C4
S11320908091BC0082FD0AC080917A0087FF03C052
S11320A081E090E005C085E090E002C080E090E02F
S11320B023B78E1708F4E82FFF27E457FD4FE49168
S11320C0207F2160E22BE3BF78948895F89483B74E
S11320D08E7F83BF809125038F3F09F4A4CF282FDF
S11320E03327F901E159FE4F8081809325038F3F07
S11320F011F4809361038FEF80832F3F09F493CF12
S11321004FBF822F0E944F0B89CFA1E21A2EAA1B28
S1132110BB1BFD010DC0AA1FBB1FEE1FFF1FA21793
S1132120B307E407F50720F0A21BB30BE40BF50B90
S1132130661F771F881F991F1A9469F76095709519
S1132140809590959B01AC01BD01CF010895DC0100
S113215001C06D9341505040E0F70895A2E0B0E013
S1132160E4EBF0E10C946613FE01379661917191F2
S1132170FA83E983AF018091690390916A030E9415
S1132180C510E2E022960C948213ABE0B0E0EBECD5
S1132190F0E10C9458133C014B016A01FC011782D5
S11321A01682838181FD03C08FEF9FEFDAC1F301B3
S11321B03381F40133FD859133FF81914F018823ED
S11321C009F4CCC1853239F433FD859133FF819113
S11321D04F01853229F4B30199270E94CB12E7CF2E
S11321E000E0442455244AE00032B0F48B3269F014
S11321F08C3228F4803251F0833271F40BC08D326A
S113220039F0803349F4016028C00260046025C0BD
S1132210086023C0006121C007FD29C0282F205376
S11322202A3078F406FF06C0549EC0011124522EB1
S1132230580E13C0449EC0011124422E480E006261
S11322400CC08E3221F406FD89C1006406C08C36B0
S113225011F4006802C0883651F4F40133FD85910D
S113226033FF81914F01882309F46FC0BDCF982FAC
S11322708554833018F08052833038F424E030E001
S1132280C20ED31E8FE389830FC0933631F0933788
S113229099F0933509F05BC023C0F60180818983EE
S11322A022E030E0C20ED31E7E010894E11CF11C32
S11322B051E0A52EB12C12C0F601E080F18006FD9C
S11322C003C06FEF7FEF02C0652D772722E030E077
S11322D0C20ED31EC7010E94C0125C010F7713C047
S11322E0F601E080F18006FD03C06FEF7FEF02C0CE
S11322F0652D772722E030E0C20ED31EC7010E946D
S1132300B5125C01006803FF07C01BC0B30180E283
S113231090E00E94CB124A94842D9927A816B906FE
S1132320A8F30FC0F70107FD859107FF81917F0195
S1132330B30199270E94CB1241104A940894A10832
S1132340B108A114B10471F706C190E03EC09436FF
S113235011F0993691F507FF0AC0F6016081718189
S11323608281938124E030E0C20ED31E0DC0F601B9
S1132370808191819C01B901882777FD8095982FF0
S113238042E050E0C40ED51E4FE6B42EB02297FFB3
S113239009C090958095709561957F4F8F4F9F4FA1
S11323A050E8B52A8E010F5F1F4F2AE030E0A801E4
S11323B00E94F812A82EA01A4DC0953731F43FEEB2
S11323C0F32EF0222AE030E023C029EFF22EF0228F
S11323D09F3661F0903720F4983509F0BFC012C0E1
S11323E0903739F0983709F0B9C005C028E030E0DB
S11323F00FC080E1F82AF4FE02C094E0F92A20E13B
S113240030E006C0F4FE02C0E6E0FE2A20E132E03D
S1132410F7FE0AC0F601608171818281938144E0F4
S113242050E0C40ED51E0BC0F60180819181AC0131
S1132430BA0188279927E2E0F0E0CE0EDF1E8E0174
S11324400F5F1F4FA8010E94F812A82EA01A8FE751
S1132450B82EBF20B6FE10C0FEEFBF22A51460F454
S11324602B2D332724FF1AC022FF02C0052D09C0DB
S11324702FEEB222052D01C00A2D2B2D332724FF68
S11324800EC0FE01EA0DF11D8081803319F439EE8E
S1132490B32209C00F5F22FF06C004C0052D822F9E
S11324A0867809F00F5FEB2CFF24E3FC14C0E0FEF8
S11324B00FC0041510F05A2C0BC0542C501A5A0C8F
S11324C0042D06C0B30180E290E00E94CB120F5F9E
S11324D00415C0F304C0041510F4401A01C04424C8
S11324E0E4FE10C0B30180E390E00E94CB12E2FE50
S11324F01EC0E1FE03C088E590E002C088E790E0DA
S1132500B3010CC08E2D867891F0E1FE02C08BE2FF
S113251001C080E2B7FC8DE2B30199270E94CB127F
S113252006C0B30180E390E00E94CB125A94A51434
S1132530C0F3AA94FE01EA0DF11D8181B30199272C
S11325400E94CB12AA2039F0F4CFB30180E290E0CC
S11325500E94CB124A944420C1F729CEF30186810C
S11325609781E0E12B960C947413FC010590615063
S113257070400110D8F7809590958E0F9F1F089595
S1132580FC016150704001900110D8F7809590953E
S11325908E0F9F1F08950F931F93CF93DF938C018A
S11325A0EB018B81992781FF1BC082FF0DC02E8117
S11325B03F818C819D812817390764F4E881F98172
S11325C00193F983E88306C0E885F985802F09958E
S11325D0892B31F48E819F8101969F838E8302C063
S11325E00FEF1FEFC801DF91CF911F910F91089555
S11325F0FA01AA27283051F1203181F1E8946F9330
S11326006E7F6E5F7F4F8F4F9F4FAF4FB1E03ED0D5
S1132610B4E03CD0670F781F891F9A1FA11D680F73
S1132620791F8A1F911DA11D6A0F711D811D911DA6
S1132630A11D20D009F468943F912AE0269F11241B
S11326403019305D3193DEF6CF010895462F47707F
S1132650405D4193B3E00FD0C9F7F6CF462F4F70DA
S1132660405D4A3318F0495D31FD4052419302D038
S1132670A9F7EACFB4E0A6959795879577956795DE
S1132680BA95C9F700976105710508959B01AC01DE
S11326900A2E06945795479537952795BA95C9F705
S11326A0620F731F841F951FA01D08952F923F92E0
S11326B04F925F926F927F928F929F92AF92BF924E
S11326C0CF92DF92EF92FF920F931F93CF93DF93FA
S11326D0CDB7DEB7CA1BDB0B0FB6F894DEBF0FBE57
S11326E0CDBF09942A88398848885F846E847D84A4
S11326F08C849B84AA84B984C884DF80EE80FD80A6
S11327000C811B81AA81B981CE0FD11D0FB6F8941B
S10F2710DEBF0FBECDBFED010895FFCF6A
S113271C74696D6572206669726564202564210A8A
S113272C00627574746F6E207072657373656421C6
S113273C2025640A00FFB701E601B70101FFFF0180
S113274CFF0000000200000000140A00000000005A
S9030000FC
