S01800006275696C642F726176656E2F6D61696E2E73726563DD
S11300000C9449000C9468000C9468000C946800EB
S11300100C9468000C9468000C9468000C946800BC
S11300200C9468000C9498060C9468000C94E306F5
S11300300C9468000C9468000C9468000C9468009C
S11300400C9468000C9468000C9468000C9468008C
S11300500C943E050C9468000C94FD050C94680007
S11300600C9468000C9468000C94F7060C946800D7
S11300700C947B060C9468000C948D060C94680018
S11300800C9468000C9468000C94680000020E063E
S11300900C0411241FBECFEFD0E4DEBFCDBF11E0AE
S11300A0A0E0B1E0EEE0F5E100E00BBF02C0079094
S11300B00D92AC31B107D9F715E0ACE1B1E001C064
S11300C01D92A038B107E1F70E9433080C94850A09
S11300D00C9400008FB7F89408958FBF0895FC0125
S11300E06115710511F481E0089580913F039091A9
S11300F04003892B11F085E00895709364056093A3
S11301006305F0934003E0933F0310923B03109286
S11301103A0381E080933C038091C0008064809323
S1130120C0008091C10080648093C100208181E07F
S113013090E090933B0380933A039FB7F894209305
S1130140C6008091C00080648093C0009FBF80E09F
S1130150089580911B01882379F520911E01213097
S113016059F582E080931E0180E590E090933E0370
S113017080933D038AE695E090932C0380932B03B0
S113018088E08093200183E080937D0510926505CB
S113019020931F019FB7F8948091BC0080935E0365
S11301A09FBF80915E038E71816A80935E0395E0A8
S11301B090931E018093BC0008957FB7F8946091DA
S11301C0B20020912E0330912F03409130035091BF
S11301D03103B99B11C08091B3009091B2002F5F9D
S11301E03F4F4F4F5F4F280F311D411D511D290FA8
S11301F0311D411D511D04C0260F311D411D511DCE
S11302007FBFB901CA010895FC0120E030E00DC0B0
S11302108081823030F0843010F0873111F42F5F08
S11302203F4F2F5F3F4F615070406115710581F75B
S1130230C9010895E0911001F09111018193F093A7
S11302401101E0931001E156F54030F081E693E0AE
S1130250909311018093100108951F93182F8230F9
S113026050F0843010F0873131F487E10E941A0194
S1130270812F806401C0812F0E941A011F9108956B
S113028020910C0130910D0180910E0190910F018C
S113029028173907D1F46091100170911101621788
S11302A0730710F461E673E070930F0160930E011D
S11302B06217730718F0621B730B04C0621B730B85
S11302C060507E4FC9010E946F0008951F93DF9311
S11302D0CF930F92CDB7DEB7982F82538E3430F17F
S11302E01FB7F8949983CE01019661E070E00E94F3
S11302F00401BC0140910C0150910D018091100149
S1130300909111018417950710F09C0103C09C0182
S113031020503E4F241B350B6E5F7F4F80E092E0F0
S1130320821B930B6817790718F01FBF81E01FC069
S113033082E00E941A0189810E942D0183E00E94BB
S11303401A010E944001898187FF0FC080911C011E
S11303508F5F80931C01815041F483E080935F039D
S11303608091C10080688093C1001FBF80E00F901E
S1130370CF91DF911F910895982F2FB7F894E82F0C
S1130380F0E0EB5DFC4F80818F3F99F4E0917C05B8
S1130390E91779F0809172058F3F19F490937205F3
S11303A004C0F0E0EB5DFC4F908390937C0580E00B
S11303B001C085E02FBF0895AF92BF92CF92DF9224
S11303C0EF92FF920F931F935B016C01E3E4F3E060
S11303D070E0608561FF3FC0E080F180028113819D
S11303E02481358146815781D601C5018E199F0923
S11303F0A00BB10B82179307A407B50760F160FF48
S113040003C06D7F608708C02E0D3F1D401F511F24
S11304102083318342835383713069F0713018F043
S11304207230F1F410C08FE20E9466018FB7F89425
S113043092B124E00CC081E30E9466018FB7F89466
S113044092B122E004C08FB7F89492B121E09227D0
S113045092B98FBF05C07F5F3996733009F0B9CF69
S113046083E00E94BC011F910F91FF90EF90DF90F9
S1130470CF90BF90AF900895982F80911B0188234F
S113048009F05EC0992349F4A2E3B3E0EAE6F5E09B
S113049088E001900D928150E1F79FB7F894809124
S11304A0BC0080935E039FBF80915E038E7F806952
S11304B080935E038093BC0080911D01833009F01A
S11304C03FC080911A01882309F03AC09091180125
S11304D09F3FD9F0A92FB0E0FD01E35DFC4FE0811F
S11304E0E0931801EF3F11F4E0931901A35DBC4FB1
S11304F08FEF8C939093600380931A0181E0809333
S11305001D0184E00E94BC01089581E080931A01DA
S113051010921D0180911E01813091F49FB7F894CF
S11305208091BC0080935E039FBF80915E038A77B5
S113053080935E038093BC004098419810921E0102
S11305400895DF92EF92FF920F931F93DFB6F89412
S11305509091B3008091B20027B3981711F021FF56
S113056002C0DFBE70C0809175058823E1F10E944E
S1130570DD00E0907605F090770500917805109104
S1130580790520912101309122014091230150915C
S113059024016E197F09800B910B6217730784077E
S11305A0950720F01092750571E01EC02E0D3F1DB9
S11305B0401F511F80912E0390912F03A09130036F
S11305C0B0913103281B390B4A0B5B0B273E3105D5
S11305D04105510540F4622F223010F070E005C04F
S11305E070E062E002C070E066EE962F9150809158
S11305F0B60083FDFCCF8091B2009813692F20913F
S11306002E0330912F034091300350913103DA01CE
S1130610C9010196A11DB11D860F911DA11DB11D1A
S113062082179307A407B50710F4622F6095809191
S1130630B60083FDFCCF6093B300DFBE772319F0CF
S113064082E00E94BC011F910F91FF90EF90DF9018
S11306500895E0911201F091130180911601909197
S11306601701E817F90711F423E00EC02191F09364
S11306701301E0931201E552F34030F085E291E07A
S11306809093130180931201822F08950E942903ED
S1130690873119F40E9429038F7B0895AF92BF928A
S11306A0CF92DF92EF92FF920F931F93DF93CF933A
S11306B0CDB7DEB762970FB6F894DEBF0FBECDBFDD
S11306C0282F823009F486C0833030F4882359F00F
S11306D0813009F082C16DC0833009F4BCC084301C
S11306E009F07BC124C19FB7F894DE011396E2E3BD
S11306F0F3E088E001900D928150E1F79FBFDE01A5
S11307001B96FE01339688E001900D928150E1F72B
S11307103A8929898889822B9B85892B9C85892BF9
S11307209F85892B9D85892B9E85892B09F43DC046
S1130730922F80E0830F911D9A8389831FB7F894C9
S1130740CE01019662E070E00E940401BC01409178
S11307500C0150910D0180911001909111018417A9
S1130760950710F09C0103C09C0120503E4F241BB0
S1130770350B6D5F7F4F80E092E0821B930B68170F
S1130780790788F482E00E941A0184E30E942D0113
S113079089810E942D018A810E942D0183E00E949B
S11307A01A010E9440011FBF18C180E00E94BC01D1
S11307B014C11FB7F8940E9429030E944603813094
S11307C011F0823021F40E9446030E9446030E94E5
S11307D02903E9CF80912A03882309F039C06FB730
S11307E0F8942091210130912201409123015091EC
S11307F024018091760590917705A0917805B091B8
S11308007905280F391F4A1F5B1F6FBFE0906605EB
S1130810F0906705009168051091690510922A030C
S11308209FB7F89481E08093750520937605309303
S113083077054093780550937905E0922101F09271
S1130840220100932301109324019FBF0E94A1025F
S11308500E94DD0046C00E94DD005B016C018FB781
S1130860F894109275058FBFE3E4F3E08FEFE82E60
S11308708FEFF82E8FEF082F8FE7182F60E0808519
S113088081FF1BC080819181A281B381A601950162
S1130890281B390B4A0B5B0BDA01C9012481358112
S11308A046815781281B390B4A0B5B0B2E153F05DC
S11308B04007510714F461E002C0A801970139967A
S11308C083E0EE35F80719F079018A01D8CF662361
S11308D009F483C012161306140615062CF0C6017B
S11308E0B5010E94DC0179C0209366053093670549
S11308F0409368055093690581E080932A039FB76C
S1130900F89480937505A0927605B0927705C0920D
S11309107805D092790520932101309322014093E8
S11309202301509324019FBF0E94A10256C09FB788
S1130930F8948091600380931A0183E080931D01F1
S11309409FBF80911A019FB7F89480931B019FBFAA
S1130950882309F042C020936A059FB7F8948091D8
S11309601B01882309F038C09FBF9FB7F8943091CA
S11309701E01313009F030C082E080931E019FBF18
S11309802FB7F89480E590E090933E0380933D0365
S11309908AE695E090932C0380932B0330932001F7
S11309A030937D051092650510921F012FBF9FB7EC
S11309B0F8948091BC0080935E039FBF2FB7F89496
S11309C080915E03816E80935E0395E090931E0197
S11309D08093BC002FBF01C09FBF62960FB6F894EE
S11309E0DEBF0FBECDBFCF91DF911F910F91FF905E
S11309F0EF90DF90CF90BF90AF90089590917205E3
S1130A009F3F11F480E00895A92FB0E0FD01EB5D54
S1130A10FC4FE081E0937205EF3F11F4E0937C0515
S1130A20AB5DBC4F8FEF8C93892F0E944E0381E006
S1130A300895DF92EF92FF920F931F93D82E7A01BD
S1130A408B010E94DD0029E0D29EF0011124ED5BB0
S1130A50FC4F6083718382839383E482F5820683EF
S1130A60178380858E7F8260808783E00E94BC012B
S1130A701F910F91FF90EF90DF9008951F920F92B6
S1130A800FB60F920BB60F9211242F933F934F93EF
S1130A905F936F937F938F939F93AF93BF93EF93E2
S1130AA0FF938091C00087FF95C06091C600E091DC
S1130AB04103F09142033097E9F080917A059091D7
S1130AC07B05E80FF91F6083019690937B05809363
S1130AD07A0520917E0530917F058217930708F4EB
S1130AE079C0109242031092410380915F038330D6
S1130AF0D9F470C0209116013091170121153105E8
S1130B00D9F4633009F066C0809114019091150105
S1130B10909317018093160180911C01815080935A
S1130B201C01882309F056C08091C1008F778093FF
S1130B30C10010925F034EC0C90101964091120199
S1130B40509113018417950731F08552934040F07A
S1130B504552514029F410921701109216013AC0DF
S1130B60623059F4809114019091150128173907C6
S1130B7021F09093170180931601E0911601F091F2
S1130B8017016193F0931701E0931601E552F340C6
S1130B9030F085E291E09093170180931601633061
S1130BA0C9F48091160190911701909315018093D7
S1130BB0140180911C01815080931C01882339F415
S1130BC08091C1008F778093C10010925F0381E010
S1130BD00E94BC01FF91EF91BF91AF919F918F91C2
S1130BE07F916F915F914F913F912F910F900BBE29
S1130BF00F900FBE0F901F90189578941F920F922C
S1130C000FB60F920BB60F9211241F932F933F939D
S1130C104F935F936F937F938F939F93AF93BF9300
S1130C20EF93FF9320913A0330913B038091630546
S1130C309091640528173907C0F4E0913F03F091BF
S1130C404003E20FF31F80812F5F3F4F30933B033C
S1130C5020933A039FB7F8948093C6008091C00014
S1130C6080648093C0009FBF32C0109240031092F2
S1130C703F0310923C038091C1008F7B8093C1009D
S1130C801FB7F89480910E0190910F0190930D017C
S1130C9080930C01609110017091110186179707E0
S1130CA0A9F06817790710F461E673E070930F01F7
S1130CB060930E016817790718F0681B790B04C05C
S1130CC0681B790B60507E4F0E946F001FBFFF911D
S1130CD0EF91BF91AF919F918F917F916F915F91B0
S1130CE04F913F912F911F910F900BBE0F900FBE0C
S1130CF00F901F9018951F920F920FB60F92112408
S1130D008F938091C80087FF02C08091CE008F919D
S1130D100F900FBE0F901F90189578941F920F920A
S1130D200FB60F9211240F900FBE0F901F901895BD
S1130D301F920F920FB60F920BB60F9211242F939E
S1130D403F934F935F936F937F938F939F93AF934F
S1130D50BF93EF93FF938091B0008093B000809194
S1130D60B60081FDFCCF8091B30090E00196A0E035
S1130D70B0E020912E0330912F0340913003509125
S1130D803103280F391F4A1F5B1F20932E03309312
S1130D902F03409330035093310378940E94A102AF
S1130DA0FF91EF91BF91AF919F918F917F916F913F
S1130DB05F914F913F912F910F900BBE0F900FBEFB
S1130DC00F901F9018951F920F920FB60F92112437
S1130DD08F938091B0008093B0008091B60081FD24
S1130DE0FCCF8F910F900FBE0F901F9018951F92FC
S1130DF00F920FB60F920BB60F9211242F933F93BD
S1130E004F935F936F937F938F939F93AF93BF930E
S1130E10EF93FF939FB7F8948091BC0080935E0397
S1130E209FBF80911E01873081F480911F01813022
S1130E3009F0EAC084E080931E0180915E03806C17
S1130E4080935E038093BC00DFC0843009F086C0C9
S1130E5080911F019091650540912001813009F036
S1130E6049C09417F0F48091BB00E0912B03F091FA
S1130E702C03E90FF11D808340916505242F30E098
S1130E808091200190E001972817390779F5809126
S1130E907D0582FD2BC080915E038F7B80935E0372
S1130EA025C090915E03292F2E7F80917D0581FFBF
S1130EB009C08D7F80937D05206120935E0380911E
S1130EC0B90003C09E7790935E0380915E03809384
S1130ED0BC0081E080931E0160913D0370913E034C
S1130EE020912B0330912C0380E07FC04F5F40930F
S1130EF06505A2C020915E03941778F4E0912B035A
S1130F00F0912C03E90FF11D80818093BB009F5F5A
S1130F10909365052093BC0077C0922F9E7F8091AB
S1130F207D0581FF07C08D7F80937D05906190933F
S1130F305E0303C02E7720935E0380915E0380934B
S1130F40BC0081E080931E0160913D0370913E03DB
S1130F5020912B0330912C0380E04DC0853009F0A3
S1130F6053C080917D058E7F80937D0590915E03B3
S1130F709F7D90935E038091B900887F883009F447
S1130F803DC08091B900887F803109F437C09FB794
S1130F90F8948091BC0080935E039FBF80915E03B0
S1130FA08A7F80935E038093BC009FB7F8948091FE
S1130FB0BC0080935E039FBF80915E038460809336
S1130FC05E038093BC0081E080931E0180911F0129
S1130FD020912B0330912C0360913D0370913E03CB
S1130FE0882331F081E0409120010E943C0228C016
S1130FF081E0409120010E94A90022C083E08093F7
S11310001E01906490935E0380911E018330C1F4AD
S113101080911F01813041F480913D03880F8160EC
S11310208093BB0087E006C080913D03880F8093C6
S1131030BB0084E080931E0180915E038093BC001A
S1131040FF91EF91BF91AF919F918F917F916F919C
S11310505F914F913F912F910F900BBE0F900FBE58
S11310600F901F901895FF920F931F93CF93DF93C8
S1131070FFB6F89414BE88E10FB6F894809360002C
S1131080109260000FBE85E293E06FEF70E045E0E0
S113109050E00E947E0A8FEF8093720580937C0556
S11310A081E08093810080E28093B60083E08093A6
S11310B0B10080918400909185004AE720918400DA
S11310C0309185002817390708F44150442311F062
S11310D0C901F4CF9091B2008091B2008917E1F375
S11310E020918400309185009091B2008091B200EB
S11310F08917E1F380918400909185004096821BCA
S1131100930B35E0969587953A95E1F7909374059E
S1131110809373051092B1008091B1008093810097
S1131120809181008093B6001092B20010928500E5
S1131130109284008FEF87BB87B386BB8091B60083
S11311408571E1F70A9A099A089A129A119A109AE3
S11311500E94FE048823E1F78FEF80932D0388E03B
S1131160E2E3F3E0DF011D928A95E9F78091B6008E
S113117080628093B6008091B60081FDFCCF82E04E
S11311808093B0008091B60080FDFCCF83E0809313
S1131190B1008091B60083FDFCCF86EE8093B3004E
S11311A0809170008260809370000E94A10212E01E
S11311B006E0609173057091740580E090E02CE086
S11311C0660F771F881F991F2A95D1F720E036E90B
S11311D040E050E00E945C0A215030402093C4005B
S11311E03093C5001093C0000093C2001092C10058
S11311F02093CC003093CD001093C8000093CA0014
S11312001092C9008091C1008F7B8093C1008091AE
S1131210C1008F778093C10010925F0310923C034A
S11312208091C10088608093C1008091C100806179
S11312308093C1008091C10080688093C1000E94A6
S1131240FE048823E1F7FFBE78949FB7F894809159
S11312501D01882309F044C031E030931D01109230
S113126060039FBF2FB7F89480911E018823F1F487
S1131270409A419A389839981092B90081E4809341
S1131280B8001092BA001092BC009FB7F8948091F5
S1131290BC0080935E039FBF80915E0384608E7F59
S11312A080935E038093BC0030931E012FBF1FB751
S11312B0F89480911A01813089F480911D01813064
S11312C021F484E00E94BC0109C0823039F4809189
S11312D0600380931A0183E080931D011FBF16C031
S11312E080912D038F3F89F4E0911901EE2369F079
S11312F0809118018F3F19F41092180104C0F0E096
S1131300E35DFC4F1082109219019FBF80E04AEF09
S113131050E060E070E00E94190581E044EF51E084
S113132060E070E00E94190582E048EE53E060E05E
S113133070E00E94190580E091E06CE070E00E948A
S11313400401BC01695F7F4F1FB7F89440910C0101
S113135050910D018091100190911101841795070E
S113136010F09C0103C09C0120503E4F241B350B00
S113137080E092E0821B930B6817790728F561508F
S1131380714010F582E00E941A0183E30E942D014E
S1131390C0E0D1E003C021960E942D0188818823FA
S11313A0D1F70E942D0183E00E941A0180E00E947F
S11313B01A0180E00E941A0180E00E941A0180E074
S11313C00E941A010E9440011FBF80E00E94660132
S11313D08FE20E94660180E00E94BC011FEF3FB7CC
S11313E0F8944DC080916F008672D9F48091710099
S11313F08672B9F40CB407FC14C08091C1008871E2
S113140081F48091C900887161F48091BC0082FDEF
S113141008C080917A0087FD02C025E003C021E066
S113142001C020E08091700090E083709070892B5F
S113143011F4E5E012C08091B6008A71E1F7809161
S1131440B3009091B200891B8C3030F08091B200CF
S1131450853F10F4E3E001C0E2E083B72E1708F4FF
S1131460E22FF0E0E457FF4FE491807F81608E2B00
S113147083BF78948895F89483B78E7F83BF8091D7
S113148072058F3F99F0A82FB0E0FD01EB5DFC4F92
S1131490E081E0937205EF3F11F4E0937C05AB5DCE
S11314A0BC4F1C933FBF0E944E0399CF80916E00A6
S11314B0867009F0B6CF96CFA1E21A2EAA1BBB1BE9
S11314C0FD010DC0AA1FBB1FEE1FFF1FA217B3070C
S11314D0E407F50720F0A21BB30BE40BF50B661F22
S11314E0771F881F991F1A9469F7609570958095E6
S11314F090959B01AC01BD01CF010895DC0101C0B1
S11115006D9341505040E0F70895F894FFCFEA
S113150E48656C6C6F20576F726C640061036103E5
S10F151E6103250125012501FFFF01FFE9
S9030000FC
